:040000000C947B01E0
:100004000C9400000C9400000C9400000C9400006C
:100014000C9400000C9400000C9400000C9400005C
:100024000C9400000C9400000C9400000C9400004C
:100034000C9400000C942E020C9400000C94020208
:100044000C9400000C94D1010C9400000C94B301A6
:100054000C9400000C9400000C9400000C9400001C
:100064000C9400000C9400000C9400000C9400000C
:100074000C9400000C9400000C9400000C940000FC
:100084000C9400000C940000000102030405060710
:1000940008090A0B0C0D0E0F7DCAA2426C7D335663
:1000A400B78E592A7CA1D07F141414141414141478
:1000B40014141414141414141E1E1E1E1E1E1E1EAC
:1000C4001E1E1E1E1E1E1E1E00000000000000003C
:1000D400000000000000000001001E000A000300F0
:1000E4000A000A00010001000A001E00F401E803EE
:1000F4002C0164002C012C01320058022C01E8036D
:100104007DB3C7586C7E4831A38D332F31C7CDCD15
:100114007DB3C7586C7E4831A38D332F31C7CDCD05
:100124007D96F8706C7E64018B8D332F31C7CDCDF5
:100134007D96F8706C7E64018B8D6D2706B1CDF2CF
:100144007D96F8706C7E64018B8DAB2751A9CDF13F
:100154007D96F8706C7E64018B8D6D2706B1CDF2AF
:100164007D96F8706C7E64018B8DAB2751A9CDF11F
:100174007D96F8706C7E64018B8D2A2B1F36CE859C
:100184007D96F8706C7E64018B8D2A2B1F36CE858C
:100194007D96F8706C7E64018B8D6D2706B1CDF26F
:1001A4007D96F8706C7E64018B8D332F31C7CECD74
:1001B400020202020202020202020202020202021B
:1001C400020202020202020202020202020202020B
:1001D40002020202020202020202020202020202FB
:1001E40002020202020202020202020202020202EB
:1001F40002020202020202020202020202020202DB
:1002040002020202020202020202020202020202CA
:1002140002020202020202020202020202020202BA
:1002240002020202020202020202020202020202AA
:10023400020202020202020202020202020202029A
:10024400020202020202020202020202020202028A
:10025400000000000000000000000000000000009A
:10026400000000000000000000000000000000008A
:10027400000000000000000000000000000000007A
:10028400000000000000000000000000000000006A
:10029400000000000000000000000000000000005A
:1002A400000000000000000000000000000000004A
:1002B400000000000000000000000000000000003A
:1002C400000000000000000000000000000000002A
:1002D400000000000000000000000000000000001A
:1002E400000000000000000000000000000000000A
:1002F4000000F894EE27ECBBF1E0F5BFE5BFE09316
:100304006C00F8E1F1BDE1BD8DE0A2E0BB27ED9307
:100314008A95E9F780E090E1A0E0B1E0ED930197E0
:10032400E9F7E4EFF2E0D0E0DBBF87919791009723
:1003340081F0A791B79107901790C791D791BF010A
:10034400DBB7F001CBBF07900D920197E1F7FB01FA
:10035400EBCFEFEFEDBFE0E1EEBFC0E0D5E00C94F2
:100364003203EA93FA93EFB7EA93DB1410F00C9498
:10037400C6015D9901C0FDCFED2DF0E0E050FB4FCB
:10038400E081ECB9D39406C0BD1411F00C94CC01F7
:10039400DD24BB24E991EFBFF991E99118950A9204
:1003A4001A92AA93BA93EA93FA93EFB7EA930E9444
:1003B400B7052CB1C39401E010E00830E0E01E075B
:1003C40014F00C94F401F8013197E654FA4F0F013C
:1003D400AAEBB5E0A00FB11FEC91D001EC930F5F35
:1003E4001F4FEBCF2093C1050E94BE052396E991D0
:1003F400EFBFF991E991B991A991199009901895D4
:10040400AA93EA93FA93EFB7EA93E9E1E2BFF3011F
:1004140031963F01E83EA3E0FA0710F40C94280259
:10042400662477248394EBE3E81510F00C942802F7
:1004340088249394E91510F00C9428029924A39429
:10044400E7E1EA1510F00C942802AA24E991EFBF21
:10045400F991E991A99118950A921A92FA926A93DC
:100464007A938A939A93AA93BA93EA93FA93EBB7FB
:10047400EA93EFB7EA93E0914907F0914A07A09114
:10048400E105B091E205EA17FB0711F00C9467024D
:10049400E0E0E093E105E093E205DD9AE89420F8DA
:1004A400E7B7EB7FE7BFE0E0EEBDE991EFBFE9918D
:1004B400EBBFF991E991B991A991999189917991B8
:1004C4006991F990199009901895E091E305F091DC
:1004D400E405FDBDECBDE6B7E460E6BFE7B7E46064
:1004E400E7BF0E94AE040E94BF04E991EFBFE99107
:1004F400EBBFF991E991B991A99199918991799178
:100504006991F990199009901895E3E0EBBBECEF31
:10051400EABBE0E0E8BBE4E7E7BBE0E0E5BBE0E83A
:10052400E4BBE3E8E2BBE0E8E1BBE0E7E3B9EAE02F
:10053400E2B9E0E0E0936200E0936100E0936500DB
:10054400E4E0E0936400E0E0E0BFE4E0E3BFE0E087
:10055400E2BFE1BFEFBDE5E0EEBDE0E0EDBDECBD27
:10056400E7BDE6BDEBBDEABDE9BDE8BDE0937900BA
:10057400E0937800E5E0E5BDE0E0E4BDE3BDE093B1
:100584008B00E3E0E0938A00E0E0E0938900E093ED
:100594008800E0938100E0938000E0938700E0937B
:1005A4008600E0938500E0938400E0938300E09369
:1005B4008200E0936A00EABFE9BFE7BFE0937D00F1
:1005C400EBB9E8E4EAB9E6E0E0939500E0E0E09313
:1005D4009000E7E0E9B9E0E0E0939B00E8E1E09314
:1005E4009A00E6E0E0939D00E0E0E0939800E7E005
:1005F400E0939900E0E0E09374000895DA9ADB9ABE
:10060400DC9AE0916500E460E0936500AF9ADD9ABE
:10061400DE9ADF9AE89420F8BB24DD24C59866248A
:10062400772488249924AA2408951A930A93C89BAA
:1006340003C0C99901C001C010C0EAE0F0E0FA9318
:10064400EA930E94D904C89B08C0E7B7EE7FE7BFCE
:10065400E9B7EF7BE9BF579A569809911991089524
:100664000E9487020E9400037894E7B7E160E7BF25
:100674000E941703E1E0EA93ECE0EA93EAE0EA93EC
:10068400EA930E94F103E1E0EA93EA93E8ECEA9347
:100694000E948C03E1E0EA93E0E0EA930E94AC0359
:1006A400AF98E4EFF1E0FA93EA930E94D904AF9A89
:1006B400E4EFF1E0FA93EA930E94D904E1E0EA93CB
:1006C400EA93E2E3EA930E948C03E1E0EA93E3E035
:1006D400EA930E94AC03E0916500EB7FE093650030
:1006E400E4EFF1E0FA93EA930E94D904E091650003
:1006F400E460E0936500E4EFF1E0FA93EA930E948A
:10070400D904C1CFFFCF5D9901C0FDCFE881ECB919
:10071400219608950A93EB81E295E07FEE0FAA817A
:10072400EA2BEA83E981AA81AE27EFE7EA230E2FB9
:10073400EFEFEA930E948503EA81EA930E9485031E
:10074400E981EA930E9485030A930E948503088144
:10075400249608950A93EA81E06EEA83E981E370BE
:10076400E983AA81E4E6EA27A981EA27AE27EFE72D
:10077400EA230E2FAB2DB0E0A050BB4FEFEFEC936C
:10078400B394EB2DF0E0E050FB4FAA81A083B39427
:10079400AB2DB0E0A050BB4FE4E6EC93B394EB2D4B
:1007A400F0E0E050FB4FA981A083B394EB2DF0E07F
:1007B400E050FB4FA083B394AB2DB0E0A050BB4FEF
:1007C4000C93B394D394ED2DE150F0E0E050FB4F43
:1007D400E081EA930E9485030881239608950A9391
:1007E400EC81E06EEC83EB81AC81EA27AA81EA27F5
:1007F400A981AE27EFE7EA230E2FAB2DB0E0A0507E
:10080400BB4FEFEFEC93B394EB2DF0E0E050FB4FD4
:10081400AC81A083B394EB2DF0E0E050FB4FAB81AF
:10082400A083B394EB2DF0E0E050FB4FAA81A083AA
:10083400B394EB2DF0E0E050FB4FA981A083B39477
:10084400AB2DB0E0A050BB4F0C93B3940881259618
:1008540008950E94B405E0915007E295E07FEE0F01
:10086400EF615E2FAB2DB0E0A050BB4FEFEFEC93E8
:10087400B394AB2DB0E0A050BB4F5C93B394AB2DBD
:10088400B0E0A050BB4FE0E1EC93B39420E030E043
:100894003F3110F00C94A304E5E0E39FF001ADE4D4
:1008A400B7E0AE0FBF1FEC91E03011F40C94A1043B
:1008B400E5E0E39FF001AEE4B7E0AE0FBF1FEC91BB
:1008C400F0E0FF93EF93E091E105F091E2050E94DF
:1008D400F3040E9454057F936F93FF93EF93E32FE8
:1008E400A5EEB5E0F0E00E94EE04AE0FBF1F0E943B
:1008F400F804AF91BF918F919F910E9482050E944D
:100904002105AF91BF91EA0FFB1F8F010F3FE0E07C
:100914001E0714F40C9491040EEF10E008C001308B
:10092400E0E01E0714F00C94990401E010E0402F5D
:10093400AB2DB0E0A050BB4F4C93B39424273F5F42
:10094400A7CF2F77AB2DB0E0A050BB4F2C93B3941F
:100954000E94BB0526960895BB2011F40C94B304A1
:10096400FBCFE091E105F091E2053196E093E105DA
:10097400F093E2050E942B040895BB2011F00C941F
:10098400C4040895D394ED2DE150F0E0E050FB4F02
:10099400E081EA930E94850308955F9BFECFECB14A
:1009A40008955D9BFECFE881ECB921960895E99105
:1009B400F991309639F086E69EE00197F1F7A89513
:1009C4003197C9F70895E095F09560957095EF5FBC
:1009D400FF4F6F4F7F4F0895EE0FFF1FEE0FFF1F66
:1009E40008956F2F660F660B762F0895ED91FD9194
:1009F4006D917C911397089550E8572711F45F93F4
:100A040073C05F3F31F0660F000C57956795752FE3
:100A140008955F9300200AF06DC060C050E8192E5D
:100A24001522880F991F9527550F879550E8072E93
:100A34000522660F771F7527550F679508955F93F5
:100A4400F5DF703818F07F3F08F44EC056E1571BAD
:100A540092F45195583028F0EFEFFFEF6FEF7FE7F6
:100A64001AC077275523B9F0EE0FFF1F661F771FB3
:100A74005A95D1F710C07727583028F0EF2FF62F6A
:100A8400672F5850F9CF552331F076956795F79530
:100A9400E7955A95D1F700200AF495DF5F91089500
:100AA400689401C0E894309760407040B1F000242D
:100AB40026F0772312F4009486DF172E7EE11120AE
:100AC40032F07A95EE0FFF1F661F111CF9CFEF2F3E
:100AD400F62F612D5F9390DF5F910895EFEFFFEFA5
:100AE4006FE77FEF5F910895EE27FF27662777274B
:100AF4005F910895EFEFFFEF6FE77FE75F91089550
:100B04005F938CDF703881F3903871F3012408947B
:100B1400791F23F44CF300200AF3ECCF3F934F9357
:100B2400112433274427552798E1330F441F551FB9
:100B3400EE1FFF1F661F30F43A0F4B1F581FE11DB5
:100B4400F11D611D9A9589F74F913F9166232AF013
:100B5400550FEE1FFF1F661F02C07395E3F24CDFB3
:100B64005F9108955A934A933A932A931A930A9356
:100B740008955D814C813B812A8119810881089502
:00000001FF
