:080000000C947B010C9400003C
:100008000C9400000C9400000C9400000C94000068
:100018000C9400000C9400000C9400000C94000058
:100028000C9400000C9400000C9400000C94000048
:100038000C9418020C9400000C94F4010C94000029
:100048000C94C5010C9400000C94AE010C940000B3
:100058000C9400000C9400000C9400000C94000018
:100068000C9400000C9400000C9400000C94000008
:100078000C9400000C9400000C9400000C940000F8
:100088000C940000000102030405060708090A0B86
:100098000C0D0E0F7DCAA2426C7D3356B78E592ABD
:1000A8007CA1D07F141414141414141414141414EC
:1000B800141414141E1E1E1E1E1E1E1E1E1E1E1E80
:1000C8001E1E1E1E000000000000000000000000B0
:1000D8000000000001001E000A0003000A000A00D8
:1000E800010001000A001E00F401E8032C0164006D
:1000F8002C012C01320058022C01E8037DB3C758AB
:100108006C7E4831A38D332F31C7CDCD7DB3C75811
:100118006C7E4831A38D332F31C7CDCD7D96F870D5
:100128006C7E64018B8D332F31C7CDCD7D96F870F1
:100138006C7E64018B8D6D2706B1CDF27D96F870CB
:100148006C7E64018B8DAB2751A9CDF17D96F8703B
:100158006C7E64018B8D6D2706B1CDF27D96F870AB
:100168006C7E64018B8DAB2751A9CDF17D96F8701B
:100178006C7E64018B8D2A2B1F36CE857D96F87098
:100188006C7E64018B8D2A2B1F36CE857D96F87088
:100198006C7E64018B8D6D2706B1CDF27D96F8706B
:1001A8006C7E64018B8D332F31C7CECD02020202E3
:1001B8000202020202020202020202020202020217
:1001C8000202020202020202020202020202020207
:1001D80002020202020202020202020202020202F7
:1001E80002020202020202020202020202020202E7
:1001F80002020202020202020202020202020202D7
:1002080002020202020202020202020202020202C6
:1002180002020202020202020202020202020202B6
:1002280002020202020202020202020202020202A6
:100238000202020202020202020202020202020296
:10024800020202020202020202020202000000008E
:100258000000000000000000000000000000000096
:100268000000000000000000000000000000000086
:100278000000000000000000000000000000000076
:100288000000000000000000000000000000000066
:100298000000000000000000000000000000000056
:1002A8000000000000000000000000000000000046
:1002B8000000000000000000000000000000000036
:1002C8000000000000000000000000000000000026
:1002D8000000000000000000000000000000000016
:1002E8000000000000000000000000000000F8947A
:1002F800EE27ECBBF1E0F5BFE5BFE0936C00F8E159
:10030800F1BDE1BD8DE0A2E0BB27ED938A95E9F749
:1003180080E090E1A0E0B1E0ED930197E9F78BBFB1
:10032800E4EFF2E085919591009761F0A591B59180
:1003380005901590BF01F00105900D920197E1F726
:10034800FB01F0CFEFEFEDBFE0E1EEBFC0E0D5E09D
:100358000C94F902EA93FA93EFB7EA93DB1440F4AA
:100368005D9BFECFED2D0E94E403ECB9D39404C04D
:10037800BD1411F4DD24BB24E991EFBFF991E99193
:1003880018950A921A92AA93BA93EA93FA93EFB736
:10039800EA930E94E1042CB1C39401E010E0083014
:1003A800E0E01E077CF4F8013197E654FA4F0F019C
:1003B800AAEBB5E0A00FB11FEC91D001EC930F5F51
:1003C8001F4FEDCF2093C1050E94E8042396E991C1
:1003D800EFBFF991E991B991A991199009901895F0
:1003E800AA93EA93FA93EFB7EA93E9E1E2BFF3013C
:1003F80031963F01E83EA3E0FA0780F066247724AF
:100408008394EBE3E81550F488249394E91530F4C9
:100418009924A394E7E1EA1508F4AA24E991EFBF27
:10042800F991E991A99118950A921A92FA926A9308
:100438007A938A939A93AA93BA93EA93FA93EFB723
:10044800EA93E0913907F0913A07A091E105B0915C
:10045800E205EA17FB0781F4E0E0E093E105E093A9
:10046800E205DD9AE89420F8E7B7EB7FE7BFE0E024
:10047800EEBD0E94E9031895E091E305F091E405CB
:10048800FDBDECBDE6B7E460E6BFE7B7E460E7BFF3
:1004980073D180D10E94E9031895E3E0EBBBECEF40
:1004A800EABBE0E0E8BBE4E7E7BBE0E0E5BBE0E8A7
:1004B800E4BBE3E0E2BBE0E0E1BBE0E7E3B9E8E0AE
:1004C800E2B9E0E0E0936200E0936100E093650048
:1004D800E4E0E0936400E0E0E0BFE4E0E3BFE0E0F4
:1004E800E2BFE1BFEFBDE5E0EEBDE0E0EDBDECBD94
:1004F800E7BDE6BDEBBDEABDE9BDE8BDE093790027
:10050800E0937800E5E0E5BDE0E0E4BDE3BDE0931D
:100518008B00E3E0E0938A00E0E0E0938900E09359
:100528008800E0938100E0938000E0938700E093E7
:100538008600E0938500E0938400E0938300E093D5
:100548008200E0936A00EABFE9BFE7BFE0937D005D
:10055800EBB9E8E4EAB9E6E0E0939500E0E0E0937F
:100568009000E7E0E9B9E0E0E0939B00E8E1E09380
:100578009A00E6E0E0939D00E0E0E0939800E7E071
:10058800E0939900E0E0E09374000895DA9ADB9A2A
:10059800DC9AE0916500E460E0936500AF9ADD9A2B
:1005A800DE9ADF9AE89420F8BB24DD24C5986624F7
:1005B800772488249924AA2408951A930A93C89B17
:1005C80002C0C99B01C00EC0EAE0F0E00E94F70338
:1005D800C89B08C0E7B7EE7FE7BFE9B7EF7BE9BF85
:1005E800579A56980991199108950E9451020E94AC
:1005F800CA027894E7B7E160E7BF0E94E102E1E050
:10060800EA93EA93E8ECEA9397D0AF980E94FB0349
:10061800AF9A0E94FB03E1E0EA93EA93E2E3EA93EC
:100628008BD0E0916500EB7FE09365000E94FB03AF
:10063800E0916500E460E09365000E94FB03DFCF72
:10064800FFCF5D9BFECFE881ECB9219608950E940B
:10065800DE04E0914007E295E07FEE0FEF615E2F48
:100668000E94FE03EFEFEC93B3940E94FE035C93A9
:10067800B3940E94FE03E0E1EC93B39420E030E0F1
:100688003F3110F00C949703E5E0E39FF001ADE3F0
:10069800B7E0AE0FBF1FEC91E03011F40C94950356
:1006A800E5E0E39FF001AEE3B7E0AE0FBF1FEC91CA
:1006B800F0E0FF93EF93E091E105F091E2050E94ED
:1006C8001D040E947E047F936F93FF93EF93E32FA3
:1006D800A5EEB5E0F0E00E941804AE0FBF1F0E941F
:1006E8002204AF91BF918F919F910E94AC040E9408
:1006F8004B04AF91BF91EA0FFB1F8F010F3FE0E062
:100708001E071CF00EEF10E006C00130E0E01E07E7
:1007180014F401E010E0402F0E94FE034C93B394C0
:1007280024273F5FADCF2F770E94FE032C93B3940D
:100738000E94E504269608950A93EB81E295E07FEE
:10074800EE0FAA81EA2BEA83E981AA81AE27EFE7B7
:10075800EA230E2FEFEFEA930E942503EA81EA933A
:100768000E942503E981EA930E9425030A930E94C7
:100778002503088124960895BB20F1F7E091E1054F
:10078800F091E2053196E093E105F093E2050E94CD
:100798002B030895BB2009F40895D394ED2DE1505F
:1007A8000E94E403EA930E94250308955F9BFECF0D
:1007B800ECB108955D9BFECFE881ECB921960895D0
:1007C800F0E0E050FB4FE0810895E991EFBFF99127
:1007D800E991B991A9919991899179916991F99042
:1007E800199009900895FA93EA930C940304E4EF9E
:1007F800F1E0F9CFAB2DB0E0A050BB4F0895E991DF
:10080800F991309639F086E69EE00197F1F7A895C0
:100818003197C9F70895E095F09560957095EF5F69
:10082800FF4F6F4F7F4F0895EE0FFF1FEE0FFF1F13
:1008380008956F2F660F660B762F0895ED91FD9141
:100848006D917C911397089550E8572711F45F93A1
:1008580073C05F3F31F0660F000C57956795752F91
:1008680008955F9300200AF06DC060C050E8192E0B
:100878001522880F991F9527550F879550E8072E41
:100888000522660F771F7527550F679508955F93A3
:10089800F5DF703818F07F3F08F44EC056E1571B5B
:1008A80092F45195583028F0EFEFFFEF6FEF7FE7A4
:1008B8001AC077275523B9F0EE0FFF1F661F771F61
:1008C8005A95D1F710C07727583028F0EF2FF62F18
:1008D800672F5850F9CF552331F076956795F795DE
:1008E800E7955A95D1F700200AF495DF5F910895AE
:1008F800689401C0E894309760407040B1F00024DB
:1009080026F0772312F4009486DF172E7EE111205B
:1009180032F07A95EE0FFF1F661F111CF9CFEF2FEB
:10092800F62F612D5F9390DF5F910895EFEFFFEF52
:100938006FE77FEF5F910895EE27FF2766277727F8
:100948005F910895EFEFFFEF6FE77FE75F910895FD
:100958005F938CDF703881F3903871F30124089429
:10096800791F23F44CF300200AF3ECCF3F934F9305
:10097800112433274427552798E1330F441F551F67
:10098800EE1FFF1F661F30F43A0F4B1F581FE11D63
:10099800F11D611D9A9589F74F913F9166232AF0C1
:1009A800550FEE1FFF1F661F02C07395E3F24CDF61
:1009B8005F9108955A934A933A932A931A930A9304
:1009C80008955D814C813B812A81198108810895B0
:00000001FF
