:100000000C941E2F0C9400000C9400000C94000023
:100010000C9400000C9400000C9400000C943D38EB
:100020000C9400000C9400000C9400000C94000050
:100030000C9400000C9400000C94E6370C94000023
:100040000C9484370C9400000C94BA310C9400008A
:100050000C948F310C94AF380C9400000C94000079
:100060000C9400000C9400000C9400000C94000010
:100070000C9400000C9400000C9401320C940000CD
:100080000C9400000C9400000C9400007DCAA24265
:100090006C7C3058B88E5A287DA1D27FAEE4FE82A7
:1000A000B9FEB47ED0D0FEE0C6FEE4FE01467C2858
:1000B000294916017839011701011928AEE4FE8299
:1000C000B9FEB97ED0E6FEFECDFEFEFE014B7C28D9
:1000D00029491601782D010119012D2DFEE1E1D2EA
:1000E000FEFEE1B9CBCDFEE6CDFEE6FE0119191903
:1000F0002D0119520501011401011128DC08E90341
:1001000040036D014603A10127161C170C035B0B6E
:1001100028020A02F505BE09B6019201B101CD011E
:100120005701D8016201CD01CA01BA017301282823
:1001300028282828282828280F0F0F0F0F0F3C3CAD
:100140003C3C3C3C3C3C3C3C141414141414000057
:10015000000000000000000000000000000001009E
:100160000800010005000F0046003601A401C80088
:100170002C017DB3C7586C7E4831A38D332F31C716
:10018000CDCD7DB3C7586C7E4831A38D332F31C799
:10019000CDCD6BA4E96A5F6C501D9B81383E28A6CB
:1001A000CED06BA4E96A5F914A28A39A757C72A6A7
:1001B000CED07EA4DE646B7D501D9B8E4F2C28A676
:1001C000CED07DB3C7586C7E4831A38D332F31C755
:1001D000CDCD04040404040404040404040404044D
:1001E00004040202020202020202020200000000F3
:1001F00000000101010101010101010101010101F1
:1002000001010202020202020202020202020202D0
:1002100002020404040404040404040404040404A2
:1002200004040101010101000000000001010100BE
:1002300000000101010101000000000001010100B6
:100240000000030303030300000000000303030096
:100250000000030303030300000000000303030086
:10026000000000000000000000000000000000008E
:100270000000282828282828282828280F0F0F0FB2
:100280000F0F3C3C3C3C3C3C3C3C3C3C14141414A8
:100290001414000000000000000000000000000036
:1002A000000001000800010005000F0046003601B3
:1002B000A401C8002C017DB3C7586C7E4831A38DC2
:1002C000332F31C7CDCD7DB3C7586C7E4831A38D58
:1002D000332F31C7CDCD8DA3E6647A8E570E969F0E
:1002E0004F2C28BBC2D069A4E0616A91501C99A729
:1002F0004F2C28777F837EA4DE646B7D501D9B8E00
:100300004F2C28A6CED07DB3C7586C7E4831A38D24
:10031000332F31C7CDCD04040404040404040404C1
:1003200004040404040402020202020202020202A1
:1003300000000000000001010101010101010101B3
:100340000101010101010202020202020202020293
:100350000202020202020404040404040404040469
:100360000404040404040000000000010101010170
:100370000000000101010000000000020202020270
:100380000000000202020000000000030303030259
:100390000000000303030000000000030303030345
:1003A0000000000303030000000000000000000044
:1003B00000000000000028282828282828282828AD
:1003C0000F0F0F0F0F0F3C3C3C3C3C3C3C3C3C3C7B
:1003D00014141414141400000000000000000000A5
:1003E00000000000000001000500080003000100FB
:1003F0000F00460096003601FA0078002C017DB30C
:10040000C7586C7E4831A38D332F31C7CDCD7DB316
:10041000C7586C7E4831A38D332F31C7CDCD7EA711
:10042000DE626E7D541D9B8E4F2C28A6CED06BA411
:10043000E9665F6C501D9B81383E28A6CED06BA428
:10044000E9695F914A289D9A383E28A6CED07EA4BD
:10045000DE5F6B7D541D9B8E4F2C28A6CED07DB3C6
:10046000C7586C7E4831A38D332F31C7CDCD0404DE
:10047000040404040404040404040404040404043C
:100480000404040404040404040404040404020230
:100490000202020202020202000000000000020248
:1004A0000202020000000000030303030303000034
:1004B000000000000000000004040404040304041D
:1004C00004040404040404040404040404040000F4
:1004D000000000000000000000000000000001011A
:1004E0000101010000000000010101000000000006
:1004F00000000000000000000000000000000101FA
:1005000001010100000000000101010000000000E5
:1005100000000000000000000000000000000000DB
:10052000000000000000000000000000000028287B
:1005300028282828282828280F0F0F0F0F0F3C3CA9
:100540003C3C3C3C3C3C3C3C141414141414000053
:10055000000000000000000000000000000001009A
:1005600005000800030001000F0046009600360158
:10057000C80078002C017DB3C7586C7E4831A38D2C
:10058000332F31C7CDCD7DB3C7586C7E4831A38D95
:10059000332F31C7CDCD7EA7DE626E7D541D9B8E7D
:1005A0004F2C28A6CED08BA3E664788E570E969F4C
:1005B0004F2C28B7BCD06CA4E0616A97501C99A757
:1005C0004F2C28B7BCD07EA6DE62717D541D9B8E59
:1005D0004F2C28A6CED07DB3C7586C7E4831A38D52
:1005E000332F31C7CDCD04040404040404040404EF
:1005F00004040404040404040404040404040404BB
:1006000004040404040402020202020202020202BE
:1006100004040404040400000000000202020202B8
:1006200004040404040400000000000202020202A8
:10063000040404040404040404040404040404047A
:100640000404040404040000000000000000000092
:100650000000000000000000000000010101010195
:100660000000000101010000000000000000000087
:100670000000000000000000000000010101010175
:100680000000000101010000000000000000000067
:10069000000000000000000000000000000000005A
:1006A0000000000000001414141414141414141482
:1006B0000F0F0F0F0F0F1E1E1E1E1E1E1E1E1E1EB4
:1006C00014141414141400000000000000000000B2
:1006D0000000000000000A0005000A0001000500FB
:1006E0000A00C800C80090017800C80090017DB3DE
:1006F000C7586C7E4831A38D332F31C7CDCD7DB324
:10070000C7586C7E4831A38D332F31C7CDCD7DA224
:10071000C7486C7E3B31978D332F31C7CDCD88A92B
:10072000D25D798B243D909D332F31C7CDCD7DADEA
:10073000D25D7B8B500E899D332F31C7CDCD86ADD9
:10074000D25D7B8B501F9D9D332F31C7CDCD7DB3A7
:10075000C7586C7E4831A38D332F31C7CDCD0404EB
:10076000040404040404040404040404040401014F
:100770000101010101010101040404040404010157
:100780000101010101010101040404040404020245
:10079000020202020202020204040404040401012F
:1007A0000101010101010101040404040404030323
:1007B0000303030303030303040404040404010107
:1007C0000101010000000000010101000000010121
:1007D0000101010000000000010101000000000013
:1007E0000000000000000000000000000000000009
:1007F00000000000000000000000000000000000F9
:1008000000000000000000000000000000000000E8
:1008100000000000000000000000000000001414B0
:1008200014141414141414140F0F140F0F0F1E1E8D
:100830001E1E1E1E1E1E1E1E14141E141414000046
:1008400000000000000000000000000000000A009E
:1008500005000A00010005000A00C800C800900158
:100860007800C80090017DB3C7586C7E4831A38DD5
:10087000332F31C7CDCD7DB3C7586C7E4831A38DA2
:10088000332F31C7CDCD7DC1CD6B6C7E5931B48D49
:10089000332F31C7CDCD77D1C36A6077511F9D8487
:1008A000332F31C7CDCD75A2E362677D4E31A37F73
:1008B000332F31C7CDCD6EA8CC555C755131A38097
:1008C000332F31C7CDCD7DB3C7586C7E4831A38D52
:1008D000332F31C7CDCD04040404040404040404FC
:1008E00004040404040401010101010101010101E6
:1008F00004040404040401010101010101010101D6
:1009000004040404040402020202020202020202BB
:1009100004040404040402020202020202020202AB
:100920000404040404040303030303030303030391
:1009300003030303030300000000000101010101A0
:10094000000000010101000000000001010101019F
:100950000000000101000000000000000000000095
:100960000000000000000000000000000000000087
:100970000000000000000000000000000000000077
:100980000000000000000000000000000000000067
:1009900000000000000028282828282828282828C7
:1009A0000F0F0F0F0F0F3C3C3C3C3C3C3C3C3C3C95
:1009B00014141414141400000000000000000000BF
:1009C0000000000000000F001E002D002D002D0073
:1009D0001E001E001E001E001E002C015802840373
:1009E00084038403580258025802580258027DB307
:1009F000C7586C7E4831A38D332F31C7CDCD7DB321
:100A0000C7586C7E4831A38D332F31C7CDCD7CDCE8
:100A1000F77D6C7E1D047F8C332F31C7CDCD7BDC01
:100A2000F656707E1D07A98B013B4AFDBFB5825368
:100A3000903F6C7DAA67BF8B013BA3FDBF588253DB
:100A4000903F6C7DAA67BF8BEA7D5A0581A6815EC7
:100A5000B7646E80A26EBA88A02D515ACDA7815777
:100A6000BF3C6E80A23BC1888A2E5974CBA781817E
:100A7000BE416E80783BBB8C852D5174CBA781A184
:100A8000C5476E805935B58F8F245974CBA77DB378
:100A9000C7586C7E4831A38D332F31C7CDCD0404A8
:100AA0000404040404040404040404040404040406
:100AB00004040404040404040404040404040303F8
:100AC00003030303030303030303030303030000FC
:100AD00000000000000000000404040404040303F8
:100AE00003030303030303030303030303030202D8
:100AF00002020202020202020404040404040202CA
:100B000002020202020202020404040404040202B9
:100B100002020202020202020404040404040202A9
:100B20000202020202020202040404040404030397
:100B30000303030303030303040404040404000085
:100B4000000000000000000000000000000003039F
:100B5000030303030303030303030303030300006B
:100B60000000000000000000000000000000020281
:100B70000202020202020202020202020202000059
:100B80000000000000000000000000000000010163
:100B90000101010101010101010101010101000047
:100BA000000000000000000000000000000003033F
:100BB000030303030303030303030303030300000B
:100BC0000000000000000000000000000000000025
:100BD00000000000000000000000000000002828C5
:100BE00028282828282828280F0F0F0F0F0F3C3CF3
:100BF0003C3C3C3C3C3C3C3C14141414141400009D
:100C000000000000000000000000000000000A00DA
:100C10000A000A000A00010023001E0028001E002E
:100C20002C01F401F401BC023403BC02580220037D
:100C300058027DB3C7586C7E4831A38D332F31C71E
:100C4000CDCD7DB3C7586C7E4831A38D332F31C7CE
:100C5000CDCD7D52D6596C7E4831A38D8F2F317208
:100C6000CDCD7D52DA65727DA622978F8D2F3172A0
:100C7000CDCD7DD2E450717C2319AC8EA72F2F529D
:100C8000CDCC7DDAF756717B1F05A88D095792FEF2
:100C9000A26C7DDCF47A6D7B1D05808D212A92DEAD
:100CA000D26C7DDCDE7A717B1D1C878D62324E92A8
:100CB000C5A97DA0F272717B5708878D522F45AD73
:100CC000CDBF7DB3C7586C7E4831A38D332F31C75C
:100CD000CDCD040404040404040404040404040442
:100CE00004040101010101010101010104040404E2
:100CF00004040404040404040404040404040404B4
:100D000004040101010101010101010101010101CD
:100D100001010101010101010101010101010101C3
:100D200001010202020202020202020202020202A5
:100D30000202020202020202020202020202020293
:100D40000202020202020202020202020202020283
:100D50000202040404040404040404040404040457
:100D6000040400000000000000000000000000007B
:100D70000000030303030303030303030303030349
:100D8000030300000000000000000000000000005D
:100D90000000020202020202020202020202020237
:100DA000020200000000000000000000000000003F
:100DB0000000010101010101010101010101010125
:100DC0000101000000000000000000000000000021
:100DD00000000303030303030303030303030303E9
:100DE00003030000000000000000000000000000FD
:100DF0000000292929292929292929290F0F0F0F1D
:100E00000F0F3D3D3D3D3D3D3D3D3D3D1414141412
:100E100014140000000000000000000000000000AA
:100E200000000500010001000100010001000100B7
:100E300001000100010001000100010001000100AA
:100E4000010001000100010001000100010001009A
:100E5000010001000100010001000100010001008A
:100E600001000100010001000100010001000A0071
:100E70000F00C80019001900190019001900190005
:100E8000190019001900190019001900190019009A
:100E9000190019001900190019001900190019008A
:100EA000190019001900190019001900190019007A
:100EB0001900190019001900190019001900C800BB
:100EC0002C017DB3C7586C7E4831A38D332F31C7B9
:100ED000CDCD7DB3C7586C7E4831A38D332F31C73C
:100EE000CDCD7DB3C7586C7E4831A38D332F31C72C
:100EF000CDCD82A5C9517386511F9395482C289159
:100F0000D1C984ABC5537589561C94984E2B299A28
:100F1000D1CE84AFC357758B5B1B989A572B2BA4EC
:100F2000D1D384B2C55B75895F1C9D98612B30ACB1
:100F3000D1D582B3C95F7386601FA195692B35B384
:100F4000D2D67FB2CE6270825F23A6916F2A39B665
:100F5000D2D67CAFD4646D7F5C28AA8E712A3BB751
:100F6000D2D67CAFD4646D7F5C28AA8E712A3BB741
:100F7000D2D678ACD966697B582EAA8A6F2A39B640
:100F8000D2D674A7DD6765785333A9876A2B35B34A
:100F9000D2D671A2E06662764D37A785612B30AD5F
:100FA000D1D56F9DE16260764939A385572B2BA47B
:100FB000D1D37199E05D627646379F854F2B299A90
:100FC000D1CE7498DD59657845339B87482C28929B
:100FD000D1C97899D954697B462E988A452C288C9A
:100FE000D0C57B9CD4506C7E4928968D442C288A91
:100FF000D0C37B9CD4506C7E4928968D442C288A83
:10100000D0C382A5C9517386511F9395482C28914E
:10101000D1C984ABC5537589561C94984E2B299A17
:10102000D1CE84AFC357758B5B1B989A572B2BA4DB
:10103000D1D384B2C55B75895F1C9D98612B30ACA0
:10104000D1D582B3C95F7386601FA195692B35B373
:10105000D2D67FB2CE6270825F23A6916F2A39B654
:10106000D2D67CAFD4646D7F5C28AA8E712A3BB740
:10107000D2D67CAFD4646D7F5C28AA8E712A3BB730
:10108000D2D678ACD966697B582EAA8A6F2A39B62F
:10109000D2D674A7DD6765785333A9876A2B35B339
:1010A000D2D671A2E06662764D37A785612B30AD4E
:1010B000D1D56F9DE16260764939A385572B2BA46A
:1010C000D1D37199E05D627646379F854F2B299A7F
:1010D000D1CE7498DD59657845339B87482C28928A
:1010E000D1C97899D954697B462E988A452C288C89
:1010F000D0C57B9CD4506C7E4928968D442C288A80
:10110000D0C37B9CD4506C7E4928968D442C288A71
:10111000D0C382A5C9517386511F9395482C28913D
:10112000D1C984ABC5537589561C94984E2B299A06
:10113000D1CE7DA6E56A6C7E5617968D332F31C7CA
:10114000CDCD7DB3C7586C7E4831A38D332F31C7C9
:10115000CDCD0303030303030303030303030303CB
:10116000030303030303030303030303030303034F
:10117000030303030303030303030303030303033F
:10118000030302020202020202020202020202023D
:10119000020201010101010101010101010101013D
:1011A000010100000000000000000000000000003D
:1011B000000000000000000000000000000000002F
:1011C0000000010101010101010101010101010111
:1011D00001010202020202020202020202020202F1
:1011E00002020303030303030303030303030303D1
:1011F00003030303030303030303030303030303BF
:1012000003030303030303030303030303030303AE
:1012100003030202020202020202020202020202AC
:1012200002020101010101010101010101010101AC
:1012300001010000000000000000000000000000AC
:10124000000000000000000000000000000000009E
:101250000000010101010101010101010101010180
:101260000101020202020202020202020202020260
:101270000202030303030303030303030303030340
:10128000030303030303030303030303030303032E
:10129000030302020202020202020202020202022C
:1012A000020201010101010101010101010101012C
:1012B000010100000000000000000000000000002C
:1012C000000000000000000000000000000000001E
:1012D0000000010101010101010101010101010100
:1012E00001010202020202020202020202020202E0
:1012F00002020303030303030303030303030303C0
:1013000003030303030303030303030303030303AD
:10131000030303030303030303030303030303039D
:10132000030302020202020202020202020202029B
:10133000020201010101010101010101010101019B
:10134000010100000000000000000000000000009B
:10135000000000000000000000000000000000008D
:10136000000001010101010101010101010101016F
:10137000010102020202020202020202020202024F
:10138000020203030303030303030303030303032F
:10139000030303030303030303030303030303031D
:1013A000030302020202020202020202020202021B
:1013B000020201010101010101010101010101011B
:1013C00001010404040404040404040404040404E3
:1013D0000404000000000000000000000000000005
:1013E00000000303030303030303030303030303D3
:1013F00003030303030303030303030303030303BD
:1014000003030202020202020202020202020202BA
:1014100002020101010101010101010101010101BA
:1014200001010000000000000000000000000000BA
:1014300000000000000000000000000000000000AC
:10144000000001010101010101010101010101018E
:10145000010102020202020202020202020202026E
:10146000020203030303030303030303030303034E
:10147000030303030303030303030303030303033C
:10148000030303030303030303030303030303032C
:10149000030302020202020202020202020202022A
:1014A000020201010101010101010101010101012A
:1014B000010100000000000000000000000000002A
:1014C000000000000000000000000000000000001C
:1014D00000000101010101010101010101010101FE
:1014E00001010202020202020202020202020202DE
:1014F00002020303030303030303030303030303BE
:1015000003030303030303030303030303030303AB
:1015100003030202020202020202020202020202A9
:1015200002020101010101010101010101010101A9
:1015300001010000000000000000000000000000A9
:10154000000000000000000000000000000000009B
:10155000000001010101010101010101010101017D
:10156000010102020202020202020202020202025D
:10157000020203030303030303030303030303033D
:10158000030303030303030303030303030303032B
:10159000030303030303030303030303030303031B
:1015A0000303020202020202020202020202020219
:1015B0000202010101010101010101010101010119
:1015C0000101000000000000000000000000000019
:1015D000000000000000000000000000000000000B
:1015E00000000101010101010101010101010101ED
:1015F00001010202020202020202020202020202CD
:1016000002020303030303030303030303030303AC
:10161000030303030303030303030303030303039A
:101620000303020202020202020202020202020298
:101630000202010101010101010101010101010198
:101640000101000000000000000000000000000098
:101650000000292929292929292929290F0F0F0FB4
:101660000F0F3D3D3D3D3D3D3D3D3D3D14141414AA
:101670001414000000000000000000000000000042
:10168000000005001400010001000100010001003C
:101690000100010001000100010001000100010042
:1016A0000100010001000100010001000100010032
:1016B0000100010001000100010001000100010022
:1016C0000100010001000100010001000100010012
:1016D00001000A0014002C019001190019001900E2
:1016E0001900190019001900190019001900190032
:1016F0001900190019001900190019001900190022
:101700001900190019001900190019001900190011
:101710001900190019001900190019001900190001
:10172000190019001900900190017DB3C7586C7E13
:101730004831A38D332F31C7CDCD7DB3C7586C7ED3
:101740004831A38D332F31C7CDCD7DA0DC6B6C7EAE
:10175000581F928D332F31C7CDCD7899DA58697BD8
:10176000482E978A392B33AED2D67497DF5B6578D3
:1017700046349B873A2B30B1D2D67098E25E6177BF
:101780004639A0863B2B2DB6D2D66F9BE36360769D
:10179000483CA5853F2B29BCD1D570A0E266617677
:1017A0004C3AA785442C28BFD1D173A5DF68647853
:1017B0005234A887492C28C1D1CE78A9DA68697B30
:1017C000582EA78A4D2C28C2D1CB7BADD4676C7E16
:1017D0005C28A58D4E2B28C2D1CA7BADD4676C7E08
:1017E0005C28A58D4E2B28C2D1CA7FB0CE637082F3
:1017F0005F22A2914D2C28C2D1CB82B2C85F7386E2
:10180000611D9F954A2C28C1D1CE83B2C35A748AD8
:10181000601A9C99452C28C0D1D184B0C055758BD5
:101820005D19979A3F2B29BCD1D584ACC253758AD8
:10183000581A94993C2B2DB7D2D682A6C8527387DA
:10184000531D92963A2B30B2D2D67FA0CE537082DF
:101850004F229291392B33AED2D67C9CD4556D7FDA
:101860004B28938E392B34ADD1D67C9CD4556D7FCB
:101870004B28938E392B34ADD1D67497DF5B6578C6
:1018800046349B873A2B30B1D2D67098E25E6177AE
:101890004639A0863B2B2DB6D2D66F9BE36360768C
:1018A000483CA5853F2B29BCD1D570A0E266617666
:1018B0004C3AA785442C28BFD1D173A5DF68647842
:1018C0005234A887492C28C1D1CE78A9DA68697B1F
:1018D000582EA78A4D2C28C2D1CB7BADD4676C7E05
:1018E0005C28A58D4E2B28C2D1CA7BADD4676C7EF7
:1018F0005C28A58D4E2B28C2D1CA7FB0CE637082E2
:101900005F22A2914D2C28C2D1CB82B2C85F7386D0
:10191000611D9F954A2C28C1D1CE83B2C35A748AC7
:10192000601A9C99452C28C0D1D184B0C055758BC4
:101930005D19979A3F2B29BCD1D584ACC253758AC7
:10194000581A94993C2B2DB7D2D682A6C8527387C9
:10195000531D92963A2B30B2D2D67FA0CE537082CE
:101960004F229291392B33AED2D67C9CD4556D7FC9
:101970004B28938E392B34ADD1D67C9CD4556D7FBA
:101980004B28938E392B34ADD1D67497DF5B6578B5
:1019900046349B873A2B30B1D2D67098E25E61779D
:1019A0004639A0863B2B2DB6D2D66F9BE36360767B
:1019B000483CA5853F2B29BCD1D56F9BE36260765F
:1019C00059199B853F2B29BCD1D57DB3C7586C7E57
:1019D0004831A38D332F31C7CDCD04040404040452
:1019E00004040404040404040404030303030303BD
:1019F00003030303030303030303020202020202BD
:101A000002020202020202020202030303030303B0
:101A1000030303030303030303030202020202029C
:101A2000020202020202020202020101010101019C
:101A3000010101010101010101010000000000009C
:101A40000000000000000000000000000000000096
:101A50000000000000000000000001010101010180
:101A60000101010101010101010102020202020260
:101A70000202020202020202020203030303030340
:101A80000303030303030303030303030303030326
:101A90000303030303030303030303030303030316
:101AA000030303030303030303030202020202020C
:101AB000020202020202020202020101010101010C
:101AC000010101010101010101010000000000000C
:101AD0000000000000000000000000000000000006
:101AE00000000000000000000000010101010101F0
:101AF00001010101010101010101020202020202D0
:101B000002020202020202020202030303030303AF
:101B10000303030303030303030303030303030395
:101B2000030303030303030303030202020202028B
:101B3000020202020202020202020101010101018B
:101B4000010101010101010101010000000000008B
:101B50000000000000000000000000000000000085
:101B6000000000000000000000000101010101016F
:101B7000010101010101010101010202020202024F
:101B8000020202020202020202020303030303032F
:101B90000303030303030303030303030303030315
:101BA0000303030303030303030303030303030305
:101BB00003030303030303030303020202020202FB
:101BC00002020202020202020202010101010101FB
:101BD00001010101010101010101000000000000FB
:101BE00000000000000000000000000000000000F5
:101BF00000000000000000000000010101010101DF
:101C000001010101010101010101020202020202BE
:101C1000020202020202020202020303030303039E
:101C20000303030303030303030303030303030384
:101C3000030303030303030303030202020202027A
:101C4000020202020202020202020101010101017A
:101C5000010101010101010101010202020202026E
:101C60000202020202020202020204040404040448
:101C7000040404040404040404040000000000003C
:101C80000000000000000000000000000000000054
:101C90000000000000000000000000000000000044
:101CA0000000000000000000000003030303030322
:101CB00003030303030303030303020202020202FA
:101CC00002020202020202020202010101010101FA
:101CD00001010101010101010101000000000000FA
:101CE00000000000000000000000000000000000F4
:101CF00000000000000000000000010101010101DE
:101D000001010101010101010101020202020202BD
:101D1000020202020202020202020303030303039D
:101D20000303030303030303030303030303030383
:101D30000303030303030303030303030303030373
:101D40000303030303030303030302020202020269
:101D50000202020202020202020201010101010169
:101D60000101010101010101010100000000000069
:101D70000000000000000000000000000000000063
:101D8000000000000000000000000101010101014D
:101D9000010101010101010101010202020202022D
:101DA000020202020202020202020303030303030D
:101DB00003030303030303030303030303030303F3
:101DC00003030303030303030303020202020202E9
:101DD00002020202020202020202010101010101E9
:101DE00001010101010101010101000000000000E9
:101DF00000000000000000000000000000000000E3
:101E000000000000000000000000010101010101CC
:101E100001010101010101010101020202020202AC
:101E2000020202020202020202020303030303038C
:101E30000303030303030303030303030303030372
:101E40000303030303030303030303030303030362
:101E50000303030303030303030302020202020258
:101E60000202020202020202020201010101010158
:101E70000101010101010101010100000000000058
:101E80000000000000000000000000000000000052
:101E9000000000000000000000000101010101013C
:101EA000010101010101010101010202020202021C
:101EB00002020202020202020202030303030303FC
:101EC00003030303030303030303030303030303E2
:101ED00003030303030303030303020202020202D8
:101EE00002020202020202020202010101010101D8
:101EF00001010101010101010101000000000000D8
:101F000000000000000000000000000000000000D1
:101F100000000000000000000000282828282828D1
:101F2000282828282828282828283C3C3C3C3C3CB9
:101F30003C3C3C3C3C3C3C3C3C3C00000000000049
:101F4000000000000000000000001E000100010071
:101F50000100010001000100010001000100010079
:101F60000100010001000100010001000100010069
:101F70000100010001000100010001000100010059
:101F80000100010001000100010001000100010049
:101F90000100010001000100010001001900E80337
:101FA0001900190019001900190019001900190069
:101FB0001900190019001900190019001900190059
:101FC0001900190019001900190019001900190049
:101FD0001900190019001900190019001900190039
:101FE0001900190019001900190019001900190029
:101FF000F4017DB3C7586C7E4831A38D597F2F9F64
:1020000070AB7DB3C7586C7E4831A38D597F2F9F2D
:1020100070AB7C8DDF566B7D5A1B918B597F2F9F48
:1020200070AB8192D85670835F148F91597F2F9F28
:1020300070AB8396D557728663129094597F2F9F09
:1020400070AB849AD459738867109296597F2F9FEA
:1020500070AB849DD35C73886B0F9596597F2F9FCF
:1020600070AB84A0D45F73886E109896597F2F9FB1
:1020700070AB83A1D56272866F129C94597F2F9F9B
:1020800070AB81A1D86570836F149F91597F2F9F8A
:1020900070AB7FA1DB676E806E18A28E597F2F9F79
:1020A00070AB7D9FDF696C7E6C1BA48C597F2F9F6A
:1020B00070AB7A9DE26A697B6A1FA489597F2F9F62
:1020C00070AB779AE66B66796722A487597F2F9F5A
:1020D00070AB7496E86A63776325A385597F2F9F59
:1020E00070AB7292EA6861765F26A184597F2F9F58
:1020F00070AB728EEB6561765C279E84597F2F9F53
:1021000070AB728BEA62617659269B84597F2F9F50
:1021100070AB748AE85E637758259885597F2F9F46
:1021200070AB778AE65B667958229587597F2F9F37
:1021300070AB7A8BE258697B581F9389597F2F9F28
:1021400070AB7A8BE258697B581F9389597F2F9F18
:1021500070AB7C8DDF566B7D5A1B918B597F2F9F07
:1021600070AB8192D85670835F148F91597F2F9FE7
:1021700070AB8396D557728663129094597F2F9FC8
:1021800070AB849AD459738867109296597F2F9FA9
:1021900070AB849DD35C73886B0F9596597F2F9F8E
:1021A00070AB84A0D45F73886E109896597F2F9F70
:1021B00070AB83A1D56272866F129C94597F2F9F5A
:1021C00070AB81A1D86570836F149F91597F2F9F49
:1021D00070AB7FA1DB676E806E18A28E597F2F9F38
:1021E00070AB7D9FDF696C7E6C1BA48C597F2F9F29
:1021F00070AB7A9DE26A697B6A1FA489597F2F9F21
:1022000070AB779AE66B66796722A487597F2F9F18
:1022100070AB7496E86A63776325A385597F2F9F17
:1022200070AB7292EA6861765F26A184597F2F9F16
:1022300070AB728EEB6561765C279E84597F2F9F11
:1022400070AB728BEA62617659269B84597F2F9F0F
:1022500070AB748AE85E637758259885597F2F9F05
:1022600070AB778AE65B667958229587597F2F9FF6
:1022700070AB7A8BE258697B581F9389597F2F9FE7
:1022800070AB7A8BE258697B581F9389597F2F9FD7
:1022900070AB7DB3C7586C7E4831A38D597F2F9F9B
:1022A00070AB0202020202020202020202020202F7
:1022B000020200000000000000000000000000001A
:1022C00000000303030303030303030303030303E4
:1022D00003030202020202020202020202020202DC
:1022E00002020202020202020202020202020202CE
:1022F00002020101010101010101010101010101CC
:1023000001010000000000000000000000000000CB
:1023100000000000000000000000000000000000BD
:10232000000001010101010101010101010101019F
:10233000010101010101010101010101010101018D
:10234000010102020202020202020202020202026F
:10235000020203030303030303030303030303034F
:10236000030303030303030303030303030303033D
:10237000030302020202020202020202020202023B
:10238000020202020202020202020202020202022D
:10239000020201010101010101010101010101012B
:1023A000010100000000000000000000000000002B
:1023B000000000000000000000000000000000001D
:1023C00000000101010101010101010101010101FF
:1023D00001010101010101010101010101010101ED
:1023E00001010202020202020202020202020202CF
:1023F00002020000000000000000000000000000D9
:1024000000000303030303030303030303030303A2
:10241000030302020202020202020202020202029A
:10242000020202020202020202020202020202028C
:10243000020201010101010101010101010101018A
:10244000010100000000000000000000000000008A
:10245000000000000000000000000000000000007C
:10246000000001010101010101010101010101015E
:10247000010101010101010101010101010101014C
:10248000010102020202020202020202020202022E
:10249000020203030303030303030303030303030E
:1024A00003030303030303030303030303030303FC
:1024B00003030202020202020202020202020202FA
:1024C00002020202020202020202020202020202EC
:1024D00002020101010101010101010101010101EA
:1024E00001010000000000000000000000000000EA
:1024F00000000000000000000000000000000000DC
:1025000000000101010101010101010101010101BD
:1025100001010101010101010101010101010101AB
:10252000010102020202020202020202020202028D
:10253000020203030303030303030303030303036D
:102540000303000000000000000000000000000085
:10255000000000000000000000000000000000007B
:102560000000030303030303030303030303030341
:102570000303020202020202020202020202020239
:10258000020202020202020202020202020202022B
:102590000202010101010101010101010101010129
:1025A0000101000000000000000000000000000029
:1025B000000000000000000000000000000000001B
:1025C00000000101010101010101010101010101FD
:1025D00001010101010101010101010101010101EB
:1025E00001010202020202020202020202020202CD
:1025F00002020303030303030303030303030303AD
:10260000030303030303030303030303030303039A
:102610000303020202020202020202020202020298
:10262000020202020202020202020202020202028A
:102630000202010000000000000000000000000095
:10264000000000000000000000000000000000008A
:10265000000000000000000000000000000000007A
:10266000000001010101010101010101010101015C
:10267000010101010101010101010101010101014A
:10268000010102020202020202020202020202022C
:102690000202000000000000000000000000000036
:1026A0000000030303030303030303030303030300
:1026B00003030202020202020202020202020202F8
:1026C00002020202020202020202020202020202EA
:1026D00002020101010101010101010101010101E8
:1026E00001010000000000000000000000000000E8
:1026F00000000000000000000000000000000000DA
:1027000000000101010101010101010101010101BB
:1027100001010101010101010101010101010101A9
:10272000010102020202020202020202020202028B
:10273000020203030303030303030303030303036B
:102740000303030303030303030303030303030359
:102750000303020202020202020202020202020257
:102760000202020202020202020202020202020249
:102770000202010000000000000000000000000054
:102780000000000000000000000000000000000049
:102790000000000000000000000000000000000039
:1027A000000001010101010101010101010101011B
:1027B0000101010101010101010101010101010109
:1027C00001010202020202020202020202020202EB
:1027D00002020000000000000000000000000000F5
:1027E00000002828282828282828282828282828B9
:1027F00028283C3C3C3C3C3C3C3C3C3C3C3C3C3C41
:102800003C3C000000000000000000000000000050
:1028100000001E0001000100010001000100010094
:1028200001000100010001000100010001000100A0
:102830000100010001000100010001000100010090
:102840000100010001000100010001000100010080
:102850000100010001000100010001000100010070
:10286000010001000A00E80319001900190019000D
:102870001900190019001900190019001900190090
:102880001900190019001900190019001900190080
:102890001900190019001900190019001900190070
:1028A0001900190019001900190019001900190060
:1028B0001900190019001900F4017DB3C7586C7E86
:1028C0004831A38D597F2F9F70AB7DB3C7586C7E65
:1028D0004831A38D597F2F9F70AB7D8DDF5A6C7E61
:1028E0005A1B8D8C597F2F9F70AB778AE65E667975
:1028F00058229287597F2F9F70AB748AE861637763
:1029000058259585597F2F9F70AB728BEA6461764D
:1029100059269884597F2F9F70AB728EEB67617632
:102920005C279C84597F2F9F70AB7292EA6B617613
:102930005F269E84597F2F9F70AB7496E86D6377F6
:102940006325A085597F2F9F70AB779AE66E6679D5
:102950006722A187597F2F9F70AB7A9DE26E697BBA
:102960006A1FA189597F2F9F70AB7C9FDF6D6B7DA4
:102970006C1BA08B597F2F9F70AB7FA1DB6B6E8090
:102980006E189E8E597F2F9F70AB81A1D86870837F
:102990006F149C91597F2F9F70AB83A1D565728670
:1029A0006F129994597F2F9F70AB84A0D462738863
:1029B0006E109696597F2F9F70AB849DD35E73885F
:1029C0006B0F9396597F2F9F70AB849AD45C73885A
:1029D00067108F96597F2F9F70AB8396D55A72865A
:1029E00063128D94597F2F9F70AB8192D859708359
:1029F0005F148C91597F2F9F70AB7F8FDB596E8056
:102A00005C188C8E597F2F9F70AB7F8FDB596E8047
:102A10005C188C8E597F2F9F70AB7D8DDF5A6C7E3A
:102A20005A1B8D8C597F2F9F70AB778AE65E667933
:102A300058229287597F2F9F70AB748AE861637721
:102A400058259585597F2F9F70AB728BEA6461760C
:102A500059269884597F2F9F70AB728EEB676176F1
:102A60005C279C84597F2F9F70AB7292EA6B6176D2
:102A70005F269E84597F2F9F70AB7496E86D6377B5
:102A80006325A085597F2F9F70AB779AE66E667994
:102A90006722A187597F2F9F70AB7A9DE26E697B79
:102AA0006A1FA189597F2F9F70AB7C9FDF6D6B7D63
:102AB0006C1BA08B597F2F9F70AB7FA1DB6B6E804F
:102AC0006E189E8E597F2F9F70AB81A1D86870833E
:102AD0006F149C91597F2F9F70AB83A1D56572862F
:102AE0006F129994597F2F9F70AB84A0D462738822
:102AF0006E109696597F2F9F70AB849DD35E73881E
:102B00006B0F9396597F2F9F70AB849AD45C738818
:102B100067108F96597F2F9F70AB8396D55A728618
:102B200063128D94597F2F9F70AB8192D859708317
:102B30005F148C91597F2F9F70AB7F8FDB596E8014
:102B40005C188C8E597F2F9F70AB7F8FDB596E8006
:102B50005C188C8E597F2F9F70AB7DB3C7586C7EED
:102B60004831A38D597F2F9F70AB020202020202EF
:102B7000020202020202020202020303030303032F
:102B80000303030303030303030303030303030315
:102B9000030303030303030303030202020202020B
:102BA0000202020202020202020202020202020205
:102BB00002020202020202020202010101010101FB
:102BC00001010101010101010101000000000000FB
:102BD00000000000000000000000000000000000F5
:102BE00000000000000000000000010101010101DF
:102BF00001010101010101010101010101010101C5
:102C000001010101010101010101020202020202AE
:102C1000020202020202020202020303030303038E
:102C20000303030303030303030303030303030374
:102C3000030303030303030303030202020202026A
:102C40000202020202020202020202020202020264
:102C5000020202020202020202020101010101015A
:102C6000010101010101010101010000000000005A
:102C70000000000000000000000000000000000054
:102C8000000000000000000000000101010101013E
:102C90000101010101010101010101010101010124
:102CA000010101010101010101010202020202020E
:102CB00002020202020202020202030303030303EE
:102CC00003030303030303030303030303030303D4
:102CD00003030303030303030303020202020202CA
:102CE00002020202020202020202020202020202C4
:102CF00002020202020202020202010101010101BA
:102D000001010101010101010101000000000000B9
:102D100000000000000000000000000000000000B3
:102D2000000000000000000000000101010101019D
:102D30000101010101010101010101010101010183
:102D4000010101010101010101010202020202026D
:102D5000020202020202020202020303030303034D
:102D60000303030303030303030303030303030333
:102D70000303030303030303030302020202020229
:102D80000202020202020202020202020202020223
:102D90000202020202020202020201010101010119
:102DA0000101010101010101010100000000000019
:102DB0000000000000000000000000000000000013
:102DC00000000000000000000000010101010101FD
:102DD00001010101010101010101010101010101E3
:102DE00001010101010101010101020202020202CD
:102DF00002020202020202020202030303030303AD
:102E000003030303030303030303000000000000A4
:102E100000000000000000000000030303030303A0
:102E20000303030303030303030303030303030372
:102E30000303030303030303030302020202020268
:102E40000202020202020202020202020202020262
:102E50000202020202020202020201010101010158
:102E60000101010101010101010100000000000058
:102E70000000000000000000000000000000000052
:102E8000000000000000000000000101010101013C
:102E90000101010101010101010101010101010122
:102EA000010101010101010101010202020202020C
:102EB00002020202020202020202030303030303EC
:102EC00003030303030303030303030303030303D2
:102ED00003030303030303030303020202020202C8
:102EE00002020202020202020202020202020202C2
:102EF00002020202020202020202010101010101B8
:102F000001010101010101010101000000000000B7
:102F100000000000000000000000000000000000B1
:102F2000000000000000000000000101010101019B
:102F30000101010101010101010101010101010181
:102F4000010101010101010101010202020202026B
:102F5000020202020202020202020303030303034B
:102F60000303030303030303030303030303030331
:102F70000303030303030303030302020202020227
:102F80000202020202020202020202020202020221
:102F90000202020202020202020201010101010117
:102FA0000101010101010101010100000000000017
:102FB0000000000000000000000000000000000011
:102FC00000000000000000000000010101010101FB
:102FD00001010101010101010101010101010101E1
:102FE00001010101010101010101020202020202CB
:102FF00002020202020202020202030303030303AB
:103000000303030303030303030303030303030390
:103010000303030303030303030302020202020286
:103020000202020202020202020202020202020280
:103030000202020202020202020201010101010176
:103040000101010101010101010100000000000076
:103050000000000000000000000000000000000070
:10306000000000000000000000000101010101015A
:103070000101010101010101010101010101010140
:10308000010101010101010101010202020202022A
:10309000020202020202020202020000000000001C
:1030A0000000000000000000000028282828282830
:1030B000282828281414141414143C3C3C3C3C3C90
:1030C0003C3C3C3C1E1E1E1E1E1E0000000000005C
:1030D000000000000000000000001E0005000800C5
:1030E000030001000F00E80396003601FA007800A3
:1030F0002C017DB3C7586C7E4831A38D597F2F9F1B
:1031000070AB7DB3C7586C7E4831A38D597F2F9F1C
:1031100070AB7EA7DE626E7D541D9B8E597F2F9F04
:1031200070AB6BA4E9665F6C501D9B81597F2F9F2C
:1031300070AB6BA4E9695F914A289D9A597F2F9FD4
:1031400070AB7EA4DE5F6B7D541D9B8E597F2F9FDD
:1031500070AB7DB3C7586C7E4831A38D597F2F9FCC
:1031600070AB020202020202020202020202020228
:103170000202040404040404040404040404040413
:103180000404020202020202020202020000000023
:103190000000020202020200000000000303030319
:1031A0000303010101010101010101010303030303
:1031B00003030404040404040404040404040404D1
:1031C00004040101010101000000000001010100EF
:1031D00000000101010101000000000001010100E7
:1031E00000000000000000000000000000000000DF
:1031F00000000101010101000000000001010100C7
:1032000000000000000000000000000000000000BE
:1032100000000000000000000000000000000000AE
:1032200000002828282828282828282814141414BE
:1032300014143C3C3C3C3C3C3C3C3C3C1E1E1E1E96
:103240001E1E000000000000000000000000000042
:1032500000001E0005000800030001000F00E80345
:1032600096003601C80078002C017DB3C7586C7EEB
:103270004831A38D597F2F9F70AB7DB3C7586C7EAB
:103280004831A38D597F2F9F70AB7EA7DE626E7D84
:10329000541D9B8E597F2F9F70AB8BA3E664788E55
:1032A000570E969F597F2F9F70AB6CA4E0616A9771
:1032B000501C99A7597F2F9F70AB7EA6DE62717D4F
:1032C000541D9B8E597F2F9F70AB7DB3C7586C7E6A
:1032D0004831A38D597F2F9F70AB02020202020278
:1032E00002020202020202020202040404040404B2
:1032F000040404040404040404040202020202029A
:10330000020202020404040404040000000000029B
:10331000020202020404040404040000000000028B
:103320000202020204040404040404040404040465
:103330000404040404040404040400000000000164
:103340000101010100000001010100000000000175
:103350000101010100000001010100000000000066
:10336000000000000000000000000000000000015C
:103370000101010100000001010100000000000046
:10338000000000000000000000000000000000003D
:1033900000000000000000000000141414141414B5
:1033A000141414141414141414141E1E1E1E1E1EA1
:1033B0001E1E1E1E1E1E1E1E1E1E000000000000E1
:1033C000000000000000000000001E0001000100DD
:1033D0000A000A000A00E803C800C800F401F4016A
:1033E000F4017DB3C7586C7E4831A38D597F2F9F60
:1033F00070AB7DB3C7586C7E4831A38D597F2F9F2A
:1034000070AB7DB7D8696C7E4831A384597F2F9FFC
:1034100070AB7DCCB85D6C7E4831A38D597F2F9FFA
:1034200070AB7DB3C7586C7E4831A38D599B1E9FEE
:103430008C7D7DB3C7586C7E4831A38D59851E9F06
:1034400095CA7DB3C7586C7E4831A38D597F2F9F95
:1034500070AB020202020202020202020202020235
:10346000020202020202020202020202020202023C
:10347000020202020202020202020202020202022C
:10348000020202020202020202020202020202021C
:10349000020202020202020202020202020202020C
:1034A00002020303030303030303030303030303EE
:1034B00003030101010101000000000001010100FE
:1034C00000000000000000000000000000000000FC
:1034D00000000000000000000000000000000000EC
:1034E00000000000000000000000000000000000DC
:1034F00000000000000000000000000000000000CC
:1035000000000000000000000000000000000000BB
:103510000000141414141414141414141414141493
:1035200014141E1E1E1E1E1E1E1E1E1E1E1E1E1ECF
:103530001E1E00000000000000000000000000004F
:1035400000000A000A00010005000A000A000A0043
:10355000F401C800C800C800F401F401F4017DB30F
:10356000C7586C7E4831A38D597F2F9F70AB7DB3B8
:10357000C7586C7E4831A38D597F2F9F70AB83B3A2
:10358000C758727E4831A38D597A2F9F70AB7CB398
:10359000C75878864A0F7E91597A2F9F70AB7CB3BB
:1035A000C7586C7C3739988E597A2F9F71AB7DB391
:1035B000C7586C7E4831A38D5963229F89827DB3A1
:1035C000C7586C7E4831A38D597D1E9F9CCC7DB31E
:1035D000C7586C7E4831A38D597F2F9F70AB020274
:1035E00002020202020202020202020202020202BB
:1035F00002020202020202020202020202020202AB
:10360000020202020202020202020202020202029A
:10361000020202020202020202020202020202028A
:10362000020202020202020202020202020202027A
:10363000020202020202020202020202020202026A
:10364000020202020202020202020202020200005E
:10365000000000000000000000000000000000006A
:10366000000000000000000000000000000000005A
:10367000000000000000000000000000000000004A
:10368000000000000000000000000000000000003A
:10369000000000000000000000000000000000002A
:1036A000000000000000000000000000000000001A
:1036B00000000000000000000000000000001414E2
:1036C00014141414141414141414141414141E1EA6
:1036D0001E1E1E1E1E1E1E1E1E1E1E1E1E1E000046
:1036E00000000000000000000000000000001E00BC
:1036F0000A0001003200E803F401F401E8037DB39D
:10370000C7586C7E4831A38D597F2F9F70AB7DB316
:10371000C7586C7E4831A38D597F2F9F70AB7C9C1E
:10372000C7586C7D6331A38D597F2F9F70AB7C9CF4
:10373000C7586C7D6331A38D59D5209F6F8E7DB3A3
:10374000C7586C7E4831A38D597F2F9F70AB020202
:103750000202020202020202020202020202020249
:103760000202020202020202020202020202020239
:103770000202020202020202020202020202030327
:10378000030303030303030303030303030300000F
:103790000000000000000000000000000000030323
:1037A00003030303030303030303030303030303E9
:1037B00003030303030303030303030303030000DF
:1037C00000000000000000000000000000001414D1
:1037D00014141414141414141414141414141E1E95
:1037E0001E1E1E1E1E1E1E1E1E1E1E1E1E1E000035
:1037F00000000000000000000000000000001400B5
:103800000A0001003200F401F401F401E8037DB381
:10381000C7586C7E4831A38D597F2F9F70AB7DB305
:10382000C7586C7E4831A38D597F2F9F70AB7D9C0C
:10383000C7586C7E6331A38D597F2F9F70AB7D9CE1
:10384000C7586C7E6331A38D592B2F9F70A07DB319
:10385000C7586C7E4831A38D597F2F9F70AB0202F1
:103860000202020202020202020202020202020238
:103870000202020202020202020202020202020228
:103880000202020202020202020202020202020218
:10389000020202020202020202020202020200000C
:1038A0000000000000000000000000000000030312
:1038B00003030303030303030303030303030303D8
:1038C00003030303030303030303030303030000CE
:1038D00000000000000000000000000000001414C0
:1038E00014141414141414141414141414141E1E84
:1038F0001E1E1E1E1E1E1E1E1E1E1E1E1E1E000024
:1039000000000000000000000000000000001400A3
:103910001E0032001E0032003200F401D007E8031E
:10392000E803E803E8037DB3C7586C7E4831A38DF4
:10393000597F2F9F70AB7DB3C7586C7E4831A38DE4
:10394000597F2F9F70AB7DB3C7586C6DA059C68C43
:103950005986739FB1AA7DB3C7586CC39A48CB915F
:10396000593B6E9F9BB57DB3C7586CCBA90DCBACB3
:103970005931209F86CC8DB8CD575DA563049899A9
:1039800059633F9F86BA7DB3C7586C7E4831A38D7B
:10399000597F2F9F70AB0202020202020202020252
:1039A00002020202020202020202020202020202F7
:1039B00002020202020202020202020202020202E7
:1039C00002020202020202020202020202020202D7
:1039D00002020202020202020202020202020202C7
:1039E00002020202020202020202020202020202B7
:1039F00002020202020200000000000000000000BB
:103A00000000000000000303030303030303030398
:103A10000303030303030000000000000000000094
:103A20000000000000000303030303030303030378
:103A30000303030303030202020202020202020260
:103A4000020202020202000000000000000000006A
:103A5000000000000000141414141414141414149E
:103A60001414141414141E1E1E1E1E1E1E1E1E1EB2
:103A70001E1E1E1E1E1E0000000000000000000092
:103A8000000000000000140032003200320032005A
:103A90003200F401D007E803E803E803E8037DB34C
:103AA000C7586C7E4831A38D597F2F9F70AB7DB373
:103AB000C7586C7E4831A38D597F2F9F70AB5A5ADF
:103AC000AB6A77A84831A38D598A7A9F9EAB24951B
:103AD000D55E6BD05F31A38C597C6A9F99B62181EA
:103AE000F85034DA8204A9BA597D6A9F99B54D809D
:103AF000EE503BAF8504ABBE447D219FA6B47DB3A1
:103B0000C7586C7E4831A38D597F2F9F70AB02023E
:103B10000202020202020202020202020202020285
:103B20000202020202020202020202020202020275
:103B30000202020202020202020202020202020265
:103B40000202020202020202020202020202020255
:103B50000202020202020202020202020202020245
:103B60000202020202020202020202020202000039
:103B7000000000000000000000000000000003033F
:103B8000030303030303030303030303030300000B
:103B9000000000000000000000000000000003031F
:103BA00003030303030303030303030303030202E7
:103BB00002020202020202020202020202020000E9
:103BC00000000000000000000000000000001414CD
:103BD00014141414141414141414141414141E1E91
:103BE0001E1E1E1E1E1E1E1E1E1E1E1E1E1E000031
:103BF00000000000000000000000000000000100C4
:103C000001000100010001000100010001000100AC
:103C1000010001000100010001000100010001009C
:103C2000010001000100010001000100010001008C
:103C3000010001000100010001000100010001007C
:103C4000010001000100010001000100010001006C
:103C5000010001000100010001000100010001005C
:103C600001000100140014001400140014001400DA
:103C700014001400140014001400140014001400A4
:103C80001400140014001400140014001400140094
:103C90001400140014001400140014001400140084
:103CA0001400140014001400140014001400140074
:103CB0001400140014001400140014001400140064
:103CC0001400140014001400F4019FD17F7FC85B1E
:103CD000297F7F348F27346DD2C89FD17F7FC85B07
:103CE000297F7F348F27346DD2C8A1D17F7FDF54E5
:103CF000297F7F3697273681D2DF98D17F7FD251B7
:103D0000297F7F379B27377ED2D28ED17F7FC34FCB
:103D1000297F7F39A0273979D2C38ED17F7FC34FC6
:103D2000297F7F39A0273979D2C392D17F7FC54EB1
:103D3000297F7F3299273277D2C596D17F7FC64DB2
:103D4000297F7F2B93272B75D2C69AD17F7FC74EB1
:103D5000297F7F248D272472D2C79DD17F7FC84FB2
:103D6000297F7F1F87271F6FD2C8A1D17F7FC853AC
:103D7000297F7F1F83271F6BD2C8A4D17F7FC7599C
:103D8000297F7F2482272468D2C7A7D17F7FC65F7F
:103D9000297F7F2B81272B64D2C6A9D17F7FC56560
:103DA000297F7F3282273260D2C5ABD17F7FC36C3F
:103DB000297F7F398327395CD2C3ABD17F7FC36C26
:103DC000297F7F398327395CD2C3ACD17F7FCA6812
:103DD000297F7F3785273763D2CAADD17F7FD164F2
:103DE000297F7F3687273669D2D1ACD17F7FD860D3
:103DF000297F7F358A27356FD2D8ABD17F7FDD5DB4
:103E0000297F7F348D273475D2DDA7D17F7FDD599F
:103E1000297F7F3491273479D2DDA1D17F7FD85695
:103E2000297F7F359427357AD2D89BD17F7FD15394
:103E3000297F7F369827367BD2D195D17F7FCA5193
:103E4000297F7F379C27377AD2CA8ED17F7FC34F95
:103E5000297F7F39A0273979D2C38ED17F7FC34F85
:103E6000297F7F39A0273979D2C392D17F7FC54E70
:103E7000297F7F3299273277D2C596D17F7FC64D71
:103E8000297F7F2B93272B75D2C69AD17F7FC74E70
:103E9000297F7F248D272472D2C79DD17F7FC84F71
:103EA000297F7F1F87271F6FD2C8A1D17F7FC8536B
:103EB000297F7F1F83271F6BD2C8A4D17F7FC7595B
:103EC000297F7F2482272468D2C7A7D17F7FC65F3E
:103ED000297F7F2B81272B64D2C6A9D17F7FC5651F
:103EE000297F7F3282273260D2C5ABD17F7FC36CFE
:103EF000297F7F398327395CD2C3ABD17F7FC36CE5
:103F0000297F7F398327395CD2C3ACD17F7FCA68D0
:103F1000297F7F3785273763D2CAADD17F7FD164B0
:103F2000297F7F3687273669D2D1ACD17F7FD86091
:103F3000297F7F358A27356FD2D8ABD17F7FDD5D72
:103F4000297F7F348D273475D2DDA7D17F7FDD595E
:103F5000297F7F3491273479D2DDA1D17F7FD85654
:103F6000297F7F359427357AD2D89BD17F7FD15353
:103F7000297F7F369827367BD2D195D17F7FCA5152
:103F8000297F7F379C27377AD2CA8ED17F7FC34F54
:103F9000297F7F39A0273979D2C38ED17F7FC34F44
:103FA000297F7F39A0273979D2C392D17F7FC54E2F
:103FB000297F7F3299273277D2C596D17F7FC64D30
:103FC000297F7F2B93272B75D2C69AD17F7FC74E2F
:103FD000297F7F248D272472D2C79DD17F7FC84F30
:103FE000297F7F1F87271F6FD2C8A1D17F7FC8532A
:103FF000297F7F1F83271F6BD2C89FD17F7FC85B1C
:10400000297F7F348F27346DD2C802020202020258
:104010000202020202020202020202020202020280
:104020000202020202020202020202020202020270
:104030000202020202020202020202020202020260
:104040000202020202020202020202020202020250
:104320000202020202020202020203030303030367
:10433000030303030303030303030000000000005F
:10434000000000000000000000000000000000006D
:10435000000000000000000000000000000000005D
:10436000000000000000000000000000000000004D
:10437000000000000000000000000000000000003D
:1046600000000000000000000000141414141414D2
:10467000141414141414141414141E1E1E1E1E1EBE
:104680001E1E1E1E1E1E1E1E1E1E000000000000FE
:104690000000000000000000000001000100010017
:1046A0000100010001000100010001000100010002
:1046B00001000100010001000100010001000100F2
:1046C000010014001400140014001400140014005D
:1046D000140014001400140014001400140014003A
:1046E000140014001400140014009FD07F7FC85BD6
:1046F0002B7F7F348F27346DD2C89FD07F7FC85BDC
:104700002B7F7F348F27346DD2C89FCE7F7FC858D0
:104710002F7F7F2E8C252E6DD4C89FCD7F7FC856CE
:10472000317F7F2B8A242B6DD5C89FCC7F7FC855C6
:10473000327F7F288923286DD6C89FCB7F7FC855BD
:10474000347F7F288922286DD7C89FCA7F7FC856AB
:10475000367F7F2B8A212B6DD8C89FC97F7FC85891
:10476000387F7F2E8C202E6DD9C89FC87F7FC85977
:104770003A7F7F318D1F316DDAC89FC87F7FC85B5C
:104780003B7F7F348F1F346DDAC89FCE7F7FC85B3D
:104790002C7F7F348F25346DD4C8A1CF7F7FCB5B36
:1047A0002B7F7F348F26346FD3CBA2D07F7FCE5B1D
:1047B0002A7F7F348F273470D2CEA4D17F7FD15B04
:1047C000297F7F348F283472D1D1A5D27F7FD45BEB
:1047D000287F7F348F293473D0D4A5D37F7FD45BD7
:1047E000277F7F348F2A3473CFD4A4D47F7FD15BCB
:1047F000267F7F348F2B3472CED1A2D57F7FCE5BC4
:10480000257F7F348F2C3470CDCEA1D67F7FCB5BBC
:10481000247F7F348F2D346FCCCB9FD67F7FC85BB6
:10482000247F7F348F2D346DCCC89FD67F7FC85BAB
:10483000247F7F348F2D346DCCC802020202020225
:104840000202020202020202020202020202020248
:104850000202020202020202020202020202020238
:104860000202020202020202020202020202020228
:104870000202020202020202020202020202020218
:104880000202020202020202020202020202020208
:1048900002020202020202020202020202020202F8
:1048A00002020202020202020202020202020202E8
:1048B00002020202020202020202020202020202D8
:1048C00002020202020202020202020202020202C8
:1048D00002020202020202020202020202020202B8
:1048E00002020202020202020202020202020202A8
:1048F0000202020202020202020202020202020298
:104900000202020202020202020202020202020287
:104910000202020202020202020202020202020277
:104920000202020202020202020202020202020267
:104930000202020202020202020202020202020257
:104940000202020202020202020202020202020247
:104950000202020202020202020202020202020237
:10496000020202020202020202020404040404041B
:10497000040404040404040404040000000000000F
:104980000000000000000000000000000000000027
:104990000000000000000000000000000000000017
:1049A0000000000000000000000000000000000007
:1049B00000000000000000000000000000000000F7
:1049C00000000000000000000000000000000000E7
:1049D00000000000000000000000000000000000D7
:1049E00000000000000000000000000000000000C7
:1049F00000000000000000000000000000000000B7
:104A000000000000000000000000000000000000A6
:104A10000000000000000000000000000000000096
:104A20000000000000000000000000000000000086
:104A30000000000000000000000000000000000076
:104A40000000000000000000000000000000000066
:104A50000000000000000000000000000000000056
:104A60000000000000000000000000000000000046
:104A70000000000000000000000000000000000036
:104A80000000000000000000000000000000000026
:104A90000000000000000000000000000000000016
:104AA0000000000000000000000000000000000006
:104AB000000000000000000000001414141414147E
:104AC000141414141414141414141E1E1E1E1E1E6A
:104AD0001E1E1E1E1E1E1E1E1E1E000000000000AA
:104AE00000000000000000000000010001000100C3
:104AF00001000100010001000100010001000100AE
:104B0000010001000100010001000100010001009D
:104B10000100140014001400140014001400140008
:104B200014001400140014001400140014001400E5
:104B3000140014001400140014009FD07F7FC85B81
:104B40002B7F7F348F27346DD2C89FD07F7FC85B87
:104B50002B7F7F348F27346DD2C8A2CE7F7FCE5B70
:104B60002F7F7F348F253470D4CEA4CD7F7FD15B4F
:104B7000317F7F348F243472D5D1A5CC7F7FD45B35
:104B8000327F7F348F233473D6D4A5CB7F7FD45B21
:104B9000347F7F348F223473D7D4A4CA7F7FD15B14
:104BA000367F7F348F213472D8D1A2C97F7FCE5B0C
:104BB000387F7F348F203470D9CEA1C87F7FCB5B04
:104BC0003A7F7F348F1F346FDACB9FC87F7FC85BFB
:104BD0003B7F7F348F1F346DDAC89FCE7F7FC85BE9
:104BE0002C7F7F348F25346DD4C89FCF7F7FC859E9
:104BF0002B7F7F318D26316DD3C89FD07F7FC858E2
:104C00002A7F7F2E8C272E6DD2C89FD17F7FC856DA
:104C1000297F7F2B8A282B6DD1C89FD27F7FC855D3
:104C2000287F7F288929286DD0C89FD37F7FC855CA
:104C3000277F7F28892A286DCFC89FD47F7FC856B9
:104C4000267F7F2B8A2B2B6DCEC89FD57F7FC858A0
:104C5000257F7F2E8C2C2E6DCDC89FD67F7FC85987
:104C6000247F7F318D2D316DCCC89FD67F7FC85B6F
:104C7000247F7F348F2D346DCCC89FD67F7FC85B57
:104C8000247F7F348F2D346DCCC8020202020202D1
:104C900002020202020202020202020202020202F4
:104CA00002020202020202020202020202020202E4
:104CB00002020202020202020202020202020202D4
:104CC00002020202020202020202020202020202C4
:104CD00002020202020202020202020202020202B4
:104CE00002020202020202020202020202020202A4
:104CF0000202020202020202020202020202020294
:104D00000202020202020202020202020202020283
:104D10000202020202020202020202020202020273
:104D20000202020202020202020202020202020263
:104D30000202020202020202020202020202020253
:104D40000202020202020202020202020202020243
:104D50000202020202020202020202020202020233
:104D60000202020202020202020202020202020223
:104D70000202020202020202020202020202020213
:104D80000202020202020202020202020202020203
:104D900002020202020202020202020202020202F3
:104DA00002020202020202020202020202020202E3
:104DB00002020202020202020202040404040404C7
:104DC00004040404040404040404000000000000BB
:104DD00000000000000000000000000000000000D3
:104DE00000000000000000000000000000000000C3
:104DF00000000000000000000000000000000000B3
:104E000000000000000000000000000000000000A2
:104E10000000000000000000000000000000000092
:104E20000000000000000000000000000000000082
:104E30000000000000000000000000000000000072
:104E40000000000000000000000000000000000062
:104E50000000000000000000000000000000000052
:104E60000000000000000000000000000000000042
:104E70000000000000000000000000000000000032
:104E80000000000000000000000000000000000022
:104E90000000000000000000000000000000000012
:104EA0000000000000000000000000000000000002
:104EB00000000000000000000000000000000000F2
:104EC00000000000000000000000000000000000E2
:104ED00000000000000000000000000000000000D2
:104EE00000000000000000000000000000000000C2
:104EF00000000000000000000000000000000000B2
:104F00000000000000000000000014141414141429
:104F1000141414141414141414141E1E1E1E1E1E15
:104F20001E1E1E1E1E1E1E1E1E1E00000000000055
:104F3000000000000000000000000100010001006E
:104F40000100010001000100010001000100140046
:104F500014001400140014001400140014001400B1
:104F600014009FD17F7FC85B297F7F348F27346DEA
:104F7000D2C89FD17F7FC85B297F7F348F27346D54
:104F8000D2C8A6D2787FC647287F7F1D7B261D7496
:104F9000D3C6A9D3737FC54A277F7F2A7E252A7768
:104FA000D4C5ABD36B7FC34F277F7F398325397936
:104FB000D4C3ABD35A7FC34F277F7F398325397939
:104FC000D4C3B0D2657FD251287F7F378526377E04
:104FD000D3D2B3D26A7FDF54287F7F3688263681CA
:104FE000D3DFA9D1707FD457297F7F358B273577C1
:104FF000D2D49FD1747FC85B297F7F348F27346DD3
:10500000D2C89FD17F7FC85B297F7F348F27346DC3
:10501000D2C80202020202020202020202020202DA
:105020000202020202020202020202020202020260
:105030000202020202020202020202020202020250
:105040000202020202020202020202020202020240
:105050000202020202020202020202020202020230
:105060000202020202020202020202020202020220
:105070000202020202020202020202020202020210
:105080000202020202020202020202020202020200
:1050900002020202020202020202020202020202F0
:1050A00002020404040404040404040404040404C4
:1050B00004040000000000000000000000000000E8
:1050C00000000000000000000000000000000000E0
:1050D00000000000000000000000000000000000D0
:1050E00000000000000000000000000000000000C0
:1050F00000000000000000000000000000000000B0
:10510000000000000000000000000000000000009F
:10511000000000000000000000000000000000008F
:10512000000000000000000000000000000000007F
:10513000000000000000000000000000000000006F
:10514000000000000000000000000000000000005F
:105150000000141414141414141414141414141437
:1051600014141E1E1E1E1E1E1E1E1E1E1E1E1E1E73
:105170001E1E0000000000000000000000000000F3
:105180000000010001000100010001000100010018
:1051900001000100010014001400140014001400A8
:1051A000140014001400140014009FD17F7FC85B0A
:1051B000297F7F348F27346DD2C89FD17F7FC85B12
:1051C000297F7F348F27346DD2C8B3D2867FDF54D6
:1051D000287F7F3688263681D3DFB0D3907FD251A7
:1051E000277F7F378525377ED4D2ABD3967FC34FB9
:1051F000277F7F3983253979D4C3ABD3987FC34FB9
:10520000277F7F3983253979D4C3A9D2937FC54AB3
:10521000287F7F2A7E262A77D3C5A6D28F7FC647CE
:10522000287F7F1D7B261D74D3C6A3D18B7FC751DA
:10523000297F7F2885272871D2C79FD1857FC85BAA
:10524000297F7F348F27346DD2C89FD1807FC85B80
:10525000297F7F348F27346DD2C8020202020202F6
:10526000020202020202020202020202020202021E
:10527000020202020202020202020202020202020E
:1052800002020202020202020202020202020202FE
:1052900002020202020202020202020202020202EE
:1052A00002020202020202020202020202020202DE
:1052B00002020202020202020202020202020202CE
:1052C00002020202020202020202020202020202BE
:1052D00002020202020202020202020202020202AE
:1052E0000202020202020202020204040404040492
:1052F0000404040404040404040400000000000086
:10530000000000000000000000000000000000009D
:10531000000000000000000000000000000000008D
:10532000000000000000000000000000000000007D
:10533000000000000000000000000000000000006D
:10534000000000000000000000000000000000005D
:10535000000000000000000000000000000000004D
:10536000000000000000000000000000000000003D
:10537000000000000000000000000000000000002D
:10538000000000000000000000000000000000001D
:105390000000000000000000000014141414141495
:1053A000141414141414141414141E1E1E1E1E1E81
:1053B0001E1E1E1E1E1E1E1E1E1E000000000000C1
:1053C00000000000000000000000010001000100DA
:1053D0000100050090019001E803900158029FD15F
:1053E0007F7FC85B297F7F348F27346DD2C89FD1E0
:1053F0007F7FC85B297F7F348F27346DD2C89FD1D0
:105400007F7FC8F1295A7F348F27346DD2C89FD14E
:105410007F7FC8F129557F348F27340DD2929FD1D9
:105420007F7FC8F16D557F348F27340DD2929FD185
:105430007F7FC85B297F7F348F27346DD2C80404F7
:10544000040404040404040404040404040404041C
:10545000040404040404040404040404040404040C
:1054600004040404040404040404040404040404FC
:1054700004040404040404040404040404040404EC
:1054800004040404040404040404040404040000E4
:10549000000000000000000000000000000000000C
:1054A00000000000000000000000000000000000FC
:1054B00000000000000000000000000000000000EC
:1054C00000000000000000000000000000000000DC
:1054D00000000000000000000000000000001414A4
:1054E00014141414141414141414141414141E1E68
:1054F0001E1E1E1E1E1E1E1E1E1E1E1E1E1E000008
:10550000000000000000000000000000000001009A
:10551000010001000100050090019001E8039001E5
:1055200058029FD17F7FC85B297F7F348F27346DDE
:10553000D2C89FD17F7FC85B297F7F348F27346D8E
:10554000D2C810D17F7FC85B299A7F348F27346DF2
:10555000D2C810D17F7FC85B29AC7F34F427706D2F
:10556000D2C8107B7F7FC85B29AC7F34F427706D75
:10557000D2C89FD17F7FC85B297F7F348F27346D4E
:10558000D2C8040404040404040404040404040449
:1055900004040404040404040404040404040404CB
:1055A00004040404040404040404040404040404BB
:1055B00004040404040404040404040404040404AB
:1055C000040404040404040404040404040404049B
:1055D00004040000000000000000000000000000C3
:1055E00000000000000000000000000000000000BB
:1055F00000000000000000000000000000000000AB
:10560000000000000000000000000000000000009A
:10561000000000000000000000000000000000008A
:105620000000141414141414141414141414141462
:1056300014141E1E1E1E1E1E1E1E1E1E1E1E1E1E9E
:105640001E1E00000000000000000000000000001E
:105650000000010001000100010001000100010043
:105660000100010001000100010001000100010032
:1056700001000100010001000100140014001400E9
:10568000140014001400140014001400140014007A
:10569000140014001400140014001400140014006A
:1056A00014009FD17F7FC85B297F7F348F27346DA3
:1056B000D2C89FD17F7FC85B297F7F348F27346D0D
:1056C000D2C8B3D17F7FDF63297F7F368827366FCB
:1056D000D2DFB0D17F7FD267297F7F3785273766BA
:1056E000D2D2ABD17F7FC36C297F7F398327395CCE
:1056F000D2C3ABD17F7FC36C297F7F398327395CCD
:10570000D2C3A9D17F7FC565297F7F3282273260CE
:10571000D2C5A7D17F7FC65F297F7F2B81272B64CE
:10572000D2C6A4D17F7FC759297F7F2482272468CE
:10573000D2C7A1D17F7FC853297F7F1F83271F6BCB
:10574000D2C89DD17F7FC84F297F7F1F87271F6FBA
:10575000D2C89AD17F7FC74E297F7F248D2724729C
:10576000D2C796D17F7FC64D297F7F2B93272B757C
:10577000D2C692D17F7FC54E297F7F32992732775B
:10578000D2C58ED17F7FC34F297F7F39A02739793A
:10579000D2C38ED17F7FC34F297F7F39A02739792C
:1057A000D2C398D17F7FD251297F7F379B27377E05
:1057B000D2D2A1D17F7FDF54297F7F3697273681D0
:1057C000D2DFA1D17F7FD457297F7F3593273577CB
:1057D000D2D49FD17F7FC85B297F7F348F27346DE0
:1057E000D2C89FD17F7FC85B297F7F348F27346DDC
:1057F000D2C80202020202020202020202020202F3
:105800000202020202020202020202020202020278
:105810000202020202020202020202020202020268
:105820000202020202020202020202020202020258
:105830000202020202020202020202020202020248
:105840000202020202020202020202020202020238
:105850000202020202020202020202020202020228
:105860000202020202020202020202020202020218
:105870000202020202020202020202020202020208
:1058800002020202020202020202020202020202F8
:1058900002020202020202020202020202020202E8
:1058A00002020202020202020202020202020202D8
:1058B00002020202020202020202020202020202C8
:1058C00002020202020202020202020202020202B8
:1058D00002020202020202020202020202020202A8
:1058E0000202020202020202020202020202020298
:1058F0000202020202020202020202020202020288
:105900000202020202020202020202020202020277
:105910000202020202020202020202020202020267
:10592000020204040404040404040404040404043B
:10593000040400000000000000000000000000005F
:105940000000000000000000000000000000000057
:105950000000000000000000000000000000000047
:105960000000000000000000000000000000000037
:105970000000000000000000000000000000000027
:105980000000000000000000000000000000000017
:105990000000000000000000000000000000000007
:1059A00000000000000000000000000000000000F7
:1059B00000000000000000000000000000000000E7
:1059C00000000000000000000000000000000000D7
:1059D00000000000000000000000000000000000C7
:1059E00000000000000000000000000000000000B7
:1059F00000000000000000000000000000000000A7
:105A00000000000000000000000000000000000096
:105A10000000000000000000000000000000000086
:105A20000000000000000000000000000000000076
:105A30000000000000000000000000000000000066
:105A40000000000000000000000000000000000056
:105A50000000000000000000000000000000000046
:105A60000000000000000000000000000000000036
:105A7000000014141414141414141414141414140E
:105A800014141E1E1E1E1E1E1E1E1E1E1E1E1E1E4A
:105A90001E1E0000000000000000000000000000CA
:105AA00000000100050001000500F4012C01900137
:105AB0002C019FD17F7FC85B297F7F348F27346D76
:105AC000D2C89FD17F7FC85B297F7F348F27346DF9
:105AD000D2C89FDA9F7FC85B299C7F1B8F1B346DC8
:105AE000C2C895DAC77FC8B4299C7F5E8F1B346D0E
:105AF000C2C89FD17F7FC85B297F7F348F27346DD9
:105B0000D2C80404040404040404040404040404C3
:105B10000404020202020202020202020202020261
:105B20000202020202020202020202020202020255
:105B30000202030303030303030303030303030337
:105B4000030300000000000000000000000000004F
:105B50000000000000000000000000000000000045
:105B60000000000000000000000000000000000035
:105B70000000000000000000000000000000000025
:105B800000001414141414141414141414141414FD
:105B900014141E1E1E1E1E1E1E1E1E1E1E1E1E1E39
:105BA0001E1E0000000000000000000000000000B9
:105BB00000000100050001000500F40190019001C2
:105BC00090019FD17F7FC85B297F7F348F27346D01
:105BD000D2C89FD17F7FC85B297F7F348F27346DE8
:105BE000D2C89FD15684D85B1D617F348F36346D07
:105BF000DCC84BD156849D5B1D617F348F36346D7C
:105C0000DCC89FD17F7FC85B297F7F348F27346DAD
:105C1000D2C80404040404040404040404040404B2
:105C20000404020202020202020202020202020250
:105C3000020200000202000202020202020202024A
:105C40000202030303030303030303030303030326
:105C5000030300000000000000000000000000003E
:105C60000000000000000000000000000000000034
:105C70000000000000000000000000000000000024
:105C80000000000000000000000000000000000014
:105C90000000000102030405060708090A0B0C0DA9
:105CA0000E0F7DCAA2426C7C3058B88E5A287DA156
:105CB000D27F14141414141414141414141414147B
:105CC00014141E1E1E1E1E1E1E1E1E1E1E1E1E1E08
:105CD0001E1E000000000000000000000000000088
:105CE00000000A0028000A000A002800F401E80366
:105CF000F401F401E8037DB3C7586C7E4831A38DED
:105D0000332F31C7CDCD7DB3C7586C7E4831A38DBD
:105D1000332F31C7CDCD7DB3C7586C7E4831A38DAD
:105D2000BB3A2EC7CDCD7DB3C7586C7E4831A38D0D
:105D3000BA672EC7CDCD7DB3C7586C7E4831A38DD1
:105D4000BB3A2EC7CDCD7DB3C7586C7E4831A38DED
:105D5000332F31C7CDCD020202020202020202023B
:105D60000202020202020202020202020202020213
:105D70000202020202020202020202020202020203
:105D800002020202020202020202020202020202F3
:105D900002020202020204040404040404040404CF
:105DA00004040404040400000000000000000000DB
:105DB00000000000000000000000000000000000E3
:105DC00000000000000000000000000000000000D3
:105DD00000000000000000000000000000000000C3
:105DE00000000000000000000000000000000000B3
:105DF0000000000000007DB3C7586C7E4831A38DC1
:105E0000332F31C7CDCD7DB3C7586C7E4831A38DBC
:105E1000597F2F9F70AB9FD17F7FC85B297F7F34D5
:105E20008F27346DD2C80000000000000000000081
:105E3000000032004B08FC0000000000F894EE2740
:105E4000ECBBF1E0F5BFE5BFE0936C00F8E1F1BD1C
:105E5000E1BD8DE0A2E0BB27ED938A95E9F780E0F4
:105E600090E1A0E0B1E0ED930197E9F7E2E3FEE510
:105E7000D0E0DBBF87919791009781F0A791B79110
:105E800007901790C791D791BF01DBB7F001CBBF47
:105E900007900D920197E1F7FB01EBCFEFEFEDBF1C
:105EA000E0E1EEBFC0E0D5E00C944B3C2497EE81DE
:105EB000FF8168857985E883F9836A837B830E9403
:105EC000315C0E94C35BA881B9818A819B810E9459
:105ED0003B5C0E94F45CDF01CB01E0E0F0E060E0BD
:105EE0007FE30E94BC5D58F0E881F9816A817B8183
:105EF0000E94315C0E94C95B0E948A5C0AC0E881F2
:105F0000F9816A817B810E94315C0E94C35B0E949F
:105F10008A5C2A960895E091E105E093A706E0E007
:105F2000E093DE05E093DF05E091DA05F091DB0513
:105F30003196E093DA05F093DB050895E091DE05F4
:105F4000F091DF053196E093DE05F093DF05A09137
:105F5000DE05B091DF051497F9F4E0E0E093DE058B
:105F6000E093DF05E0E0E093E005E881A091E10542
:105F7000EA1751F4E091DA05F091DB053196E093F0
:105F8000DA05F093DB0508C0E0E0E093DA05E09382
:105F9000DB05E89424F8DE9A7BC0E091E105A0914E
:105FA000E005EA27E093E005A091E105A13051F476
:105FB000E091DA05F091DB053196E093DA05F09394
:105FC000DB0508C0E0E0E093DA05E093DB05E89448
:105FD00024F8DE9A08951A930A93A091E105A1305E
:105FE00059F5EBE0EA93E0E1EA930E94653EE0E0D8
:105FF000E093E00500E010E00031E0E01E07BCF4B3
:10600000ADE1B0E0A00FB11F0E944C5CEA930E948A
:10601000143DADE1B0E0A00FB11F0E944C5CA09117
:10602000E005EA27E093E0050F5F1F4FE5CFE09121
:10603000E005EA930E94143DE0E0E093DA05E09386
:10604000DB05E89424F8DE9AA7C0E091E105A09171
:10605000E005EA27E093E005E091DE05F091DF0539
:106060003196E093DE05F093DF05E881A091DE052F
:10607000B091DF05F0E0EA17FB0751F4E091DA0593
:10608000F091DB053196E093DA05F093DB0531976B
