:100000000C947B010C9400000C9400000C940000F4
:100010000C9400000C9400000C9400000C94000060
:100020000C9400000C9400000C9400000C94000050
:100030000C9400000C9400000C941F020C9400001F
:100040000C94FB010C9400000C94CC010C94000067
:100050000C94B3010C9400000C9400000C9400006C
:100060000C9400000C9400000C9400000C94000010
:100070000C9400000C9400000C9400000C94000000
:100080000C9400000C9400000C940000000102038A
:100090000405060708090A0B0C0D0E0F7DCAA242C3
:1000A0006C7D3356B78E592A7CA1D07F141414145A
:1000B0001414141414141414141414141E1E1E1ED8
:1000C0001E1E1E1E1E1E1E1E1E1E1E1E00000000C8
:1000D00000000000000000000000000001001E0001
:1000E0000A0003000A000A00010001000A001E00C5
:1000F000F401E8032C0164002C012C0132005802A9
:100100002C01E8037DB3C7586C7E4831A38D332F93
:1001100031C7CDCD7DB3C7586C7E4831A38D332F09
:1001200031C7CDCD7D96F8706C7E64018B8D332FF9
:1001300031C7CDCD7D96F8706C7E64018B8D6D27B7
:1001400006B1CDF27D96F8706C7E64018B8DAB2785
:1001500051A9CDF17D96F8706C7E64018B8D6D2771
:1001600006B1CDF27D96F8706C7E64018B8DAB2765
:1001700051A9CDF17D96F8706C7E64018B8D2A2B90
:100180001F36CE857D96F8706C7E64018B8D2A2B90
:100190001F36CE857D96F8706C7E64018B8D6D2741
:1001A00006B1CDF27D96F8706C7E64018B8D332F95
:1001B00031C7CECD02020202020202020202020294
:1001C000020202020202020202020202020202020F
:1001D00002020202020202020202020202020202FF
:1001E00002020202020202020202020202020202EF
:1001F00002020202020202020202020202020202DF
:1002000002020202020202020202020202020202CE
:1002100002020202020202020202020202020202BE
:1002200002020202020202020202020202020202AE
:10023000020202020202020202020202020202029E
:10024000020202020202020202020202020202028E
:100250000202020200000000000000000000000096
:10026000000000000000000000000000000000008E
:10027000000000000000000000000000000000007E
:10028000000000000000000000000000000000006E
:10029000000000000000000000000000000000005E
:1002A000000000000000000000000000000000004E
:1002B000000000000000000000000000000000003E
:1002C000000000000000000000000000000000002E
:1002D000000000000000000000000000000000001E
:1002E000000000000000000000000000000000000E
:1002F000000000000000F894EE27ECBBF1E0F5BF31
:10030000E5BFE0936C00F8E1F1BDE1BD8DE0A2E056
:10031000BB27ED938A95E9F780E090E1A0E0B1E09A
:10032000ED930197E9F7E4EFF2E0D0E0DBBF8791CE
:100330009791009781F0A791B79107901790C79177
:10034000D791BF01DBB7F001CBBF07900D920197AA
:10035000E1F7FB01EBCFEFEFEDBFE0E1EEBFC0E077
:10036000D5E00C941E03EA93FA93EFB7EA93DB14FB
:1003700050F45D9BFECFED2DF0E0E050FB4FE081AF
:10038000ECB9D39404C0BD1411F4DD24BB24E9916D
:10039000EFBFF991E99118950A921A92AA93BA932C
:1003A000EA93FA93EFB7EA930E945D0A2CB1C394E3
:1003B00001E010E00830E0E01E077CF4F80131971E
:1003C000E654FA4F0F01AAEBB5E0A00FB11FEC9174
:1003D000D001EC930F5F1F4FEDCF2093C1050E941A
:1003E000640A2396E991EFBFF991E991B991A99136
:1003F000199009901895AA93EA93FA93EFB7EA93A4
:10040000E9E1E2BFF30131963F01E83EA3E0FA07DC
:1004100080F0662477248394EBE3E81550F4882475
:100420009394E91530F49924A394E7E1EA1508F4CC
:10043000AA24E991EFBFF991E991A99118950A923F
:100440001A92FA926A937A938A939A93AA93BA9396
:10045000EA93FA93EBB7EA93EFB7EA93E09149078F
:10046000F0914A07A091E105B091E205EA17FB0778
:10047000E9F4E0E0E093E105E093E205DD9AE89439
:1004800020F8E7B7EB7FE7BFE0E0EEBDE991EFBF13
:10049000E991EBBFF991E991B991A991999189916C
:1004A00079916991F990199009901895E091E30577
:1004B000F091E405FDBDECBDE6B7E460E6BFE7B74B
:1004C000E460E7BFB6D5C3D5E991EFBFE991EBBFD3
:1004D000F991E991B991A99199918991799169914C
:1004E000F990199009901895E3E0EBBBECEFEABBAB
:1004F000E0E0E8BBE4E7E7BBE0E0E5BBE0E8E4BB65
:10050000E3E0E2BBE0E0E1BBE0E7E3B9E8E0E2B969
:10051000E0E0E0936200E0936100E0936500E4E0D6
:10052000E0936400E0E0E0BFE4E0E3BFE0E0E2BFCE
:10053000E1BFEFBDE5E0EEBDE0E0EDBDECBDE7BD48
:10054000E6BDEBBDEABDE9BDE8BDE0937900E0930F
:100550007800E5E0E5BDE0E0E4BDE3BDE0938B00BD
:10056000E3E0E0938A00E0E0E0938900E093880014
:10057000E0938100E0938000E0938700E0938600A1
:10058000E0938500E0938400E0938300E093820091
:10059000E0936A00EABFE9BFE7BFE0937D00EBB9F3
:1005A000E8E4EAB9E6E0E0939500E0E0E09390004B
:1005B000E7E0E9B9E0E0E0939B00E8E1E0939A002E
:1005C000E6E0E0939D00E0E0E0939800E7E0E09350
:1005D0009900E0E0E09374000895DA9ADB9ADC9ADF
:1005E000E0916500E460E0936500AF9ADD9ADE9AE1
:1005F000DF9AE89420F8BB24DD24C598662477248C
:1006000088249924AA2408951A930A93C89B02C0A7
:10061000C99B01C010C0EAE0F0E0FA93EA930E949F
:10062000EF08C89B08C0E7B7EE7FE7BFE9B7EF7BED
:10063000E9BF579A56980991199108950E9474023A
:100640000E94ED027894E7B7E160E7BF0E940403DF
:1006500093019BD5B3D562167306E9F3F9CFFFCFAB
:100660005D9BFECFE881ECB9219608950A93EC8159
:10067000E06EEC83EB81AC81EA27AA81EA27A981AD
:10068000AE27EFE7EA230E2FAB2DB0E0A050BB4F13
:10069000EFEFEC93B394EB2DF0E0E050FB4FAC8127
:1006A000A083B394EB2DF0E0E050FB4FAB81A0832F
:1006B000B394EB2DF0E0E050FB4FAA81A083B394FC
:1006C000EB2DF0E0E050FB4FA981A083B394AB2D5C
:1006D000B0E0A050BB4F0C93B394088125960895C9
:1006E0000E945A0AE0915007E295E07FEE0FEF6119
:1006F0005E2FAB2DB0E0A050BB4FEFEFEC93B39467
:10070000AB2DB0E0A050BB4F5C93B394AB2DB0E0E9
:10071000A050BB4FE0E1EC93B39420E030E03F31D8
:1007200010F00C94E403E5E0E39FF001ADE4B7E0E2
:10073000AE0FBF1FEC91E03011F40C94E203E5E042
:10074000E39FF001AEE4B7E0AE0FBF1FEC91F0E025
:10075000FF93EF93E091E105F091E2050E94130908
:100760000E9499097F936F93FF93EF93E32FA5EE78
:10077000B5E0F0E00E940909AE0FBF1F0E943309E7
:10078000AF91BF918F919F910E94C7090E94660906
:10079000AF91BF91EA0FFB1F8F010F3FE0E01E07F3
:1007A0001CF00EEF10E006C00130E0E01E0714F46C
:1007B00001E010E0402FAB2DB0E0A050BB4F4C93B8
:1007C000B39424273F5FABCF2F77AB2DB0E0A05081
:1007D000BB4F2C93B3940E94610A269608951A93F6
:1007E0000A9300E010E00F31E0E01E0710F00C94D7
:1007F0003E04A6E0A09FF001A19FF00DABE8B6E09B
:10080000AE0FBF1FE0E0EC93A6E0A09FF001A19F18
:10081000F00DACE8B6E0AE0FBF1FE0E0EC93A6E051
:10082000A09FF001A19FF00DADE8B6E0AE0FBF1F95
:10083000E0E0EC93A6E0A09FF001A19FF00DAEE8F0
:10084000B6E0AE0FBF1FE0E0EC93A6E0A09FF00182
:10085000A19FF00DAFE8B6E0AE0FBF1FE0E0EC9354
:10086000A6E0A09FF001A19FF00DA0E9B6E0AE0FB9
:10087000BF1FE0E0EC930F5F1F4FB5CF00E010E02B
:10088000E0918906F0918A060E171F0710F00C946C
:10089000E304F80166277727E457FF4F6F4F6BBFDC
:1008A000E691A6E0EA9FF001ABE8B6E0AE0FBF1F0D
:1008B000E1E0EC93F80166277727E457FF4F6F4F8D
:1008C0006BBFE691A6E0EA9FF001E457F94F0F01F4
:1008D000F801A0916906B0916A0680916B0690912B
:1008E0006C06662777270E94FB086BBFE691D00154
:1008F000EC93F80166277727E457FF4F6F4F6BBFE4
:10090000E691A6E0EA9FF001E357F94F0F01F801E5
:10091000A0916D06B0916E0680916F069091700661
:10092000662777270E94FB086BBFE691D001EC9306
:10093000F80166277727E457FF4F6F4F6BBFE691AB
:10094000A6E0EA9FF001E257F94F0F01F801A091EC
:100950007106B091720680917306909174066627B5
:1009600077270E94FB086BBFE691D001EC93F8015A
:1009700066277727E457FF4F6F4F6BBFE691A6E0DE
:10098000EA9FF001AFE8B6E0AE0FBF1FE1E0EC93E5
:10099000F80166277727E457FF4F6F4F6BBFE6914B
:1009A000A6E0EA9FF001A0E9B6E0AE0FBF1FF80194
:1009B00066277727E456FF4F6F4F6BBFE691EC93A6
:1009C0000F5F1F4F5DCF32C31A930A935798569A01
:1009D000BB20F1F700E010E00F31E0E01E0750F51A
:1009E000A6E0A09FF001A19FF00DABE8B6E0AE0F2E
:1009F000BF1FEC91E030D9F00A93EBE0EA93A6E058
:100A0000A09FF001A19FF00DACE8B6E0AE0FBF1FB4
:100A1000EC91EA93A6E0A09FF001A19FF00DADE854
:100A2000B6E0AE0FBF1FEC91EA930E9436030F5F52
:100A30001F4FD2CFD394ED2DE150F0E0E050FB4FAB
:100A4000E081EA930E943003BB20F1F700E010E060
:100A50000F31E0E01E0750F5A6E0A09FF001A19F36
:100A6000F00DABE8B6E0AE0FBF1FEC91E030D9F06F
:100A70000A93E8E1EA93A6E0A09FF001A19FF00DA0
:100A8000AEE8B6E0AE0FBF1FEC91EA93A6E0A09FE0
:100A9000F001A19FF00DAEE8B6E0AE0FBF1FEC91E4
:100AA000EA930E9436030F5F1F4FD2CFD394ED2DF0
:100AB000E150F0E0E050FB4FE081EA930E94300308
:100AC000B5C21A930A935798569ABB20F1F700E0E3
:100AD00010E00F31E0E01E0750F5A5E0A09FF00107
:100AE000A19FF00DADE4B7E0AE0FBF1FEC91E03079
:100AF000D9F00A93E4E6EA93A5E0A09FF001A19F54
:100B0000F00DA1E5B7E0AE0FBF1FEC91EA93A5E0B1
:100B1000A09FF001A19FF00DA1E5B7E0AE0FBF1FB0
:100B2000EC91EA930E9436030F5F1F4FD2CFD3940C
:100B3000ED2DE150F0E0E050FB4FE081EA930E94A0
:100B4000300374C21A930A93E091E807F091E90721
:100B5000A0917506B09176068091770690917806FF
:100B6000662777270E940E090E94FB080E943E0913
:100B7000E0934907F0934A07E091E807F091E9070D
:100B8000A0917906B0917A0680917B0690917C06BF
:100B9000662777270E940E090E94FB080E943E09E3
:100BA000E0934B07F0934C0700E010E0E0918906DA
:100BB000F0918A060E171F07D0F5A5E0A09FF0015F
:100BC000A19FF00DADE4B7E0AE0FBF1FE0E0EC93E6
:100BD000A5E0A09FF001A19FF00DAEE4B7E0AE0F3D
:100BE000BF1FE0E0EC93A5E0A09FF001A19FF00DF6
:100BF000AFE4B7E0AE0FBF1FE0E0EC93A5E0A09F2D
:100C0000F001A19FF00DA0E5B7E0AE0FBF1FE0E03F
:100C1000EC93A5E0A09FF001A19FF00DA1E5B7E046
:100C2000AE0FBF1FE0E0EC930F5F1F4FBFCF00E0A0
:100C300010E0E0918906F0918A060E171F0710F068
:100C40000C94E706F80166277727E457FF4F6F4FAC
:100C50006BBFE691A5E0EA9FF001ADE4B7E0AE0F0F
:100C6000BF1FE1E0EC93F80166277727E457FF4FB9
:100C70006F4F6BBFE691A5E0EA9FF001E25BF84F92
:100C8000FF93EF93E0918906F0918A06A091E8071F
:100C9000B091E9070E941809E00FF11FA0917D06AD
:100CA000B0917E0680917F06909180066627772717
:100CB0000E94FB086BBFE691AF91BF91EC93F801E6
:100CC00066277727E457FF4F6F4F6BBFE691A5E08C
:100CD000EA9FF001E15BF84FFF93EF93A091890643
:100CE000B0918A06E091E807F091E90731960E94F9
:100CF0001809E00FF11FA0917D06B0917E0680914A
:100D00007F0690918006662777270E94FB086BBFBD
:100D1000E691AF91BF91EC93F80166277727E457EE
:100D2000FF4F6F4F6BBFE691A5E0EA9FF001E05BDC
:100D3000F84FFF93EF93E0918906F0918A06A09116
:100D4000E807B091E9070E941809E00FF11FA09190
:100D50006106B091620680916306909164066627F1
:100D600077270E94FB086BBFE691AF91BF91EC9390
:100D7000F80166277727E457FF4F6F4F6BBFE69167
:100D8000A5E0EA9FF001EF5AF84FFF93EF93E0914F
:100D90008906F0918A06A091E807B091E9070E94C0
:100DA0001809E00FF11FA0916506B09166068091C9
:100DB000670690916806662777270E94FB086BBF3D
:100DC000E691AF91BF91EC930F5F1F4F32CF5798D1
:100DD000569A88EB92E10197F1F728C12497A091E8
:100DE0004B07B0914C07E0914907F0914A070E94E8
:100DF0002009749708F448C0E0914B07F0914C0724
:100E0000662777270E949909A6E6B6E686E691E46A
:100E10000E94C709E883F9836A837B83E0914907CD
:100E2000F0914A07662777270E949909A881B9811E
:100E30008A819B810E94F909E883F9836A837B8315
:100E40000E946609AFEFBFEFAE1BBF0B9B97A0934D
:100E5000E305B093E405DD98689420F8E5E0EEBD85
:100E6000A63EEFEFBE0730F4E091E305F091E40514
:100E70007A9602C0EFEFFFEFFDBDECBDE6B7E46090
:100E8000E6BFE7B7E460E7BF249608951A930A9394
:100E900000E010E00F31E0E01E0710F00C941108A4
:100EA000A5E0A09FF001A19FF00DADE4B7E0AE0F6B
:100EB000BF1FEC91E03011F40C940E08A5E0A09F48
:100EC000F001A19FF00DAEE4B7E0AE0FBF1F6C9133
:100ED000A5E0A09FF001A19FF00DAFE4B7E0AE0F39
:100EE000BF1FEC91E61711F40C940108F801A5EE70
:100EF000B5E00E940909EA0FFB1FCF01A5E0A09F02
:100F0000F001A19FF00DAFE4B7E0AE0FBF1F6C91F1
:100F10007727A5E0A09FF001A19FF00DAEE4B7E018
:100F2000AE0FBF1FAC91BB27FB01EA1BFB0B0E945E
:100F300013090E949909DC010E943909F801A5EE04
:100F4000B5E00E940909EA0FFB1FFF93EF93F80138
:100F5000A5EEB5E00E940909AE0FBF1F0E9433093C
:100F6000DF01CB01E0914907F0914A076627772717
:100F70000E9499090E94F909AF91BF910E94390915
:100F8000F801A5EEB5E00E940909AE0FBF1F0E944F
:100F90003309DF01CB01E0E0F0E06DE773E40E948C
:100FA0003A0A09F010F40C94E107F801A5EEB5E057
:100FB0000E940909AE0FBF1FE0E0F0E06EE773E4A6
:100FC0001DC0F801A5EEB5E00E940909AE0FBF1FD4
:100FD0000E943309DF01CB01E0E0F0E06DE773EC44
:100FE0000E943A0A68F4F801A5EEB5E00E940909EA
:100FF000AE0FBF1FE0E0F0E06EE773EC0E9439092E
:101000000DC0F801A5EEB5E00E940909AE0FBF1FA3
:10101000E0E0F0E060E070E00E9439090F5F1F4FF0
:1010200039CFE0E0E093E105E093E2050991199101
:101030000895BB20F1F7E091E105F091E2053196CA
:10104000E093E105F093E2050E9470030895BB2050
:1010500009F40895D394ED2DE150F0E0E050FB4FFA
:10106000E081EA930E943003089524971A930A932B
:101070000E94EF030E94E40400E010E0E091870684
:10108000F09188060E171F07A8F40093E807109345
:10109000E9070E94A2050E9461050E94EE060E94D7
:1010A00046070E9419080E94270820FCFECF0F5F08
:1010B0001F4FE4CF1981088126960895E4EBF1E0F3
:1010C00060E0E0936106F0936206609363067093BC
:1010D0006406E4E5F2E060E0E0936506F0936606FE
:1010E0006093670670936806ECEAF0E060E0E093D6
:1010F0006906F0936A0660936B0670936C06ECEBDE
:10110000F0E060E0E0936D06F0936E0660936F068A
:1011100070937006ECECF0E060E0E0937106F09301
:1011200072066093730670937406ECEDF0E060E075
:10113000E0937506F09376066093770670937806D1
:10114000E0EFF0E060E0E0937906F0937A066093D8
:101150007B0670937C06E4E0F1E060E0E0937D06BE
:10116000F0937E0660937F0670938006EAE0F0E0DD
:10117000E0938706F0938806E0E1F0E0E0938906CB
:10118000F0938A060E94350808950E945D0AE9B32B
:10119000E3702E2F233061F0F20131962F01E536F6
:1011A000A0E0FA0720F0223011F40E945E0802C08D
:1011B000442455240E94640A2396089521FE04C005
:1011C000DA98DB9ADC98089508955F9BFECFECB126
:1011D00008955D9BFECFE881ECB921960895E991D1
:1011E000F991309639F086E69EE00197F1F7A895DF
:1011F0003197C9F70895EA0FFB1F681F791F0895FB
:10120000E095F09560957095EF5FFF4F6F4F7F4FC2
:101210000895EE0FFF1FEE0FFF1F0895EE0FFF1F43
:10122000661F771F08956F2F660F660B762F089540
:10123000FA9FF02DEB9FF00DEA9FE02DF10D089540
:101240000024112490E1AA0FBB1F001C111C0E1AD0
:101250001F0A18F40E0E1F1E01C0A1609A9599F77F
:10126000FD01D0010895ED91FD916D917C91139751
:101270000895ED93FD936D937C9308956BBF079054
:10128000F691E02D089550E8572711F45F9373C04D
:101290005F3F31F0660F000C57956795752F0895E5
:1012A0005F9300200AF06DC060C050E8192E15222F
:1012B000880F991F9527550F879550E8072E05220F
:1012C000660F771F7527550F679508955F93F5DFB4
:1012D000703818F07F3F08F44EC056E1571B92F467
:1012E0005195583028F0EFEFFFEF6FEF7FE71AC00E
:1012F00077275523B9F0EE0FFF1F661F771F5A950A
:10130000D1F710C07727583028F0EF2FF62F672F2E
:101310005850F9CF552331F076956795F795E795B5
:101320005A95D1F700200AF46BDF5F910895689415
:1013300001C0E894309760407040B1F0002426F07E
:10134000772312F400945CDF172E7EE1112032F037
:101350007A95EE0FFF1F661F111CF9CFEF2FF62FA6
:10136000612D5F9390DF5F910895EFEFFFEF6FE7DF
:101370007FEF5F910895EE27FF27662777275F911C
:101380000895EFEFFFEF6FE77FE75F9108955F93B9
:101390008CDF703881F3903871F301240894791F41
:1013A00023F44CF300200AF3ECCF3F934F93112426
:1013B00033274427552798E1330F441F551FEE1F4D
:1013C000FF1F661F30F43A0F4B1F581FE11DF11D20
:1013D000611D9A9589F74F913F9166232AF0550F29
:1013E000EE1FFF1F661F02C07395E3F24CDF5F9193
:1013F00008955F935ADF703819F4112012F6B5CFB3
:10140000903809F4B8CF01240894970B1BF4D4F357
:101410000020F4CF792F6695F795E7958695B795D7
:10142000A7954F9311244427552798E1AE17BF077E
:10143000860728F0AE1BBF0B860B089401C088946A
:10144000111C441F551FAA1FBB1F881F9A9571F7B7
:10145000E12DF42F652FA695E91FF91F691F4F9104
:1014600066232AF0EE0FFF1F661F7A955BF20BDFF3
:101470005F91089599239AF0772342F0971748F0E7
:1014800029F4AE17BF07860720F031F098948894AE
:10149000089598940894089518948894089577234B
:1014A000C2F7971798F3A9F7EA17FB07680788F3BD
:1014B00099F3ECCF5A934A933A932A931A930A9347
:1014C00008955D814C813B812A81198108810895AD
:00000001FF
